:100000000C942A000C9447000C9447000C94470071
:100010000C9447000C9447000C9447000C94470044
:100020000C9447000C9447000C945A0A0C94870ACD
:100030000C9447000C9447000C9447000C94470024
:100040000C94AA120C9447000C9447000C9447009F
:100050000C94470011241FBECFE5D8E0DEBFCDBF12
:1000600010E0A8E6B0E001C01D92AC38B107E1F79E
:1000700010E0A0E6B0E0E6E4F6E202C005900D92E2
:10008000A836B107D9F70E9409060C9421130C94E5
:100090000000EF92FF920F931F937B018C0120E0F1
:1000A00030E040E05FE40E94490388238CF0C801FF
:1000B000B70120E030E040E05FE40E94C1010E940F
:1000C000A9039B01AC01205030404040504806C07D
:1000D000C801B7010E94A9039B01AC01B901CA0183
:1000E0001F910F91FF90EF900895A0E0B0E0EBE733
:1000F000F0E00C94EA12DC012B01FA019C919230A1
:1001000008F439C1EB018881823008F433C194309E
:1001100069F4843009F02FC111969C91119789815F
:10012000981709F428C1A0E6B0E025C1843009F48D
:1001300021C18230A9F4923009F01DC19A01AD01AC
:1001400088E0EA010990AE01E90109929E0181501F
:10015000C1F7E201898111969C918923818308C1AD
:10016000923009F407C112962D903C901397EB0141
:100170008A819B811496AD90BD90CD90DC901797AD
:10018000EC80FD800E811F819101281B390BB90184
:1001900037FF04C066277727621B730B6032710537
:1001A0000CF061C0121613066CF537014801062EDB
:1001B00004C096948794779467940A94D2F721E0C8
:1001C00030E040E050E004C0220F331F441F551FB1
:1001D0006A95D2F721503040404050402E213F21B7
:1001E00040235123211531054105510521F021E01E
:1001F00030E040E050E079018A01E628F72808293C
:1002000019293CC0232BD1F1260E371E350146019A
:10021000062E04C096948794779467940A94D2F734
:1002200021E030E040E050E004C0220F331F441FC3
:10023000551F6A95D2F721503040404050402A2146
:100240003B214C215D21211531054105510521F04E
:1002500021E030E040E050E059016A01A628B728CB
:10026000C828D9280BC0821593052CF01C01AA249C
:10027000BB24650103C0EE24FF24870111969C91E5
:10028000D20111968C91981709F445C0992339F041
:10029000A80197012A193B094C095D0906C0A6016E
:1002A00095012E193F09400B510B57FD08C01182D3
:1002B0003382228224833583468357831DC081E0A5
:1002C00081833382228288279927DC01821B930B4A
:1002D000A40BB50B84839583A683B7830DC0220F2F
:1002E000331F441F551F24833583468357838281E0
:1002F000938101979383828324813581468157813D
:10030000DA01C9010197A109B1098F5F9F4FAF4F72
:10031000BF4328F30BC0918333822282EA0CFB1C7B
:100320000C1D1D1DE482F5820683178383E0808304
:10033000248135814681578157FF1AC0C901AA27F8
:1003400097FDA095BA2F81709070A070B0705695EF
:10035000479537952795822B932BA42BB52B848318
:100360009583A683B7838281938101969383828349
:10037000DF0101C0D201CD01CDB7DEB7E2E10C94BF
:100380000613A0E2B0E0E7ECF1E00C94F61269830A
:100390007A838B839C832D833E834F835887E9E048
:1003A000EE2EF12CEC0EFD1ECE010196B7010E943F
:1003B000D2048E010F5E1F4FCE010596B8010E9438
:1003C000D2048A8991E089278A8BC701B801AE01DE
:1003D000475E5F4F0E9475000E94FD03A096E6E015
:1003E0000C941213A0E2B0E0E8EFF1E00C94F612E6
:1003F00069837A838B839C832D833E834F835887C5
:10040000F9E0EF2EF12CEC0EFD1ECE010196B701A6
:100410000E94D2048E010F5E1F4FCE010596B801D7
:100420000E94D204C701B801AE01475E5F4F0E942F
:1004300075000E94FD03A096E6E00C941213A0E262
:10044000B0E0E5E2F2E00C94EA1269837A838B83F0
:100450009C832D833E834F835887CE010196BE0136
:10046000675F7F4F0E94D204CE010596BE016F5E8A
:100470007F4F0E94D2049985923088F0898982301A
:10048000C8F0943019F4823051F404C0843029F457
:10049000923081F480E690E0C6C0923049F420E0CA
:1004A0009A858A89981321E02A87CE010996BBC0D4
:1004B000823049F420E09A858A89981321E02A8BBA
:1004C000CE014196B0C02D843E844F8458886D88FB
:1004D0007E888F88988CEE24FF248701AA24BB2471
:1004E000650140E050E060E070E0E0E0F0E0C10174
:1004F00081709070892BE9F0E60CF71C081D191D1E
:100500009A01AB012A0D3B1D4C1D5D1D80E090E062
:10051000A0E0B0E0E614F7040805190520F481E036
:1005200090E0A0E0B0E0BA01A901480F591F6A1F8E
:100530007B1FAA0CBB1CCC1CDD1C97FE08C081E0F5
:1005400090E0A0E0B0E0A82AB92ACA2ADB2A3196B6
:10055000E032F10549F0660C771C881C991C569412
:10056000479437942794C3CFFA85EA892B893C892D
:100570008B859C85280F391F2E5F3F4F17C0CA01FE
:1005800081709070892B61F016950795F794E79428
:1005900080E090E0A0E0B0E8E82AF92A0A2B1B2BC3
:1005A00076956795579547952F5F3F4F77FDE7CF36
:1005B0000CC0440F551F661F771F17FD4160EE0CDE
:1005C000FF1C001F111F21503040403090E05907A0
:1005D00090E0690790E4790760F32B8F3C8FDB0193
:1005E000CA018F779070A070B07080349105A1051A
:1005F000B10561F447FD0AC0E114F10401051105DC
:1006000029F0405C5F4F6F4F7F4F40781A8EFE1786
:1006100011F081E08A8F4D8F5E8F6F8F78A383E01A
:10062000898FCE0149960E94FD03A096E2E10C94C9
:100630000613A8E1B0E0EFE1F3E00C94F612698351
:100640007A838B839C832D833E834F83588789E0F5
:10065000E82EF12CEC0EFD1ECE010196B7010E9492
:10066000D2048E010F5E1F4FCE010596B8010E9485
:10067000D2048985823040F08989823028F0C70110
:10068000B8010E944A0501C08FEF6896E6E00C941D
:100690001213A8E1B0E0EFE4F3E00C94F6126983E2
:1006A0007A838B839C832D833E834F83588789E095
:1006B000E82EF12CEC0EFD1ECE010196B7010E9432
:1006C000D2048E010F5E1F4FCE010596B8010E9425
:1006D000D2048985823040F08989823028F0C701B0
:1006E000B8010E944A0501C08FEF6896E6E00C94BD
:1006F0001213A8E1B0E0EFE7F3E00C94F61269837F
:100700007A838B839C832D833E834F83588789E034
:10071000E82EF12CEC0EFD1ECE010196B7010E94D1
:10072000D2048E010F5E1F4FCE010596B8010E94C4
:10073000D2048985823040F08989823028F0C7014F
:10074000B8010E944A0501C081E06896E6E00C9479
:100750001213ACE0B0E0EFEAF3E00C94FA12698314
:100760007A838B839C83CE010196BE016B5F7F4FA2
:100770000E94D2048D81823061F1823050F1843048
:1007800021F48E81882351F12EC02F81388537FDC9
:1007900020C06E812F3131051CF06623F9F023C093
:1007A0008EE190E0821B930B29853A854B855C8511
:1007B00004C056954795379527958A95D2F76623B5
:1007C000B1F050954095309521953F4F4F4F5F4F79
:1007D0000EC020E030E040E050E009C02FEF3FEFD6
:1007E0004FEF5FE704C020E030E040E050E8B9019F
:1007F000CA012C96E2E00C941613DF92EF92FF925E
:100800000F931F93FC01E480F58006811781D1804E
:100810008081823048F480E090E0A0E1B0E0E82AF6
:10082000F92A0A2B1B2BA5C0843009F49FC0823003
:1008300021F4EE24FF24870105C0E114F104010531
:10084000110519F4E0E0F0E096C0628173819FEF3A
:10085000623879070CF05BC022E83FEF261B370BAC
:100860002A3131052CF020E030E040E050E02AC091
:10087000B801A701022E04C0769567955795479554
:100880000A94D2F781E090E0A0E0B0E004C0880FC5
:10089000991FAA1FBB1F2A95D2F70197A109B10979
:1008A0008E219F21A023B1230097A105B10521F03E
:1008B00081E090E0A0E0B0E09A01AB01282B392B59
:1008C0004A2B5B2BDA01C9018F779070A070B07052
:1008D00080349105A105B10539F427FF09C0205CDA
:1008E0003F4F4F4F5F4F04C0215C3F4F4F4F5F4F13
:1008F000E0E0F0E02030A0E03A07A0E04A07A0E402
:100900005A0710F0E1E0F0E079018A0127C0603871
:10091000710564F5FB01E158FF4FD801C7018F77DE
:100920009070A070B07080349105A105B10539F4C4
:10093000E7FE0DC080E490E0A0E0B0E004C08FE3EB
:1009400090E0A0E0B0E0E80EF91E0A1F1B1F17FFA1
:1009500005C016950795F794E794319687E01695AC
:100960000795F794E7948A95D1F705C0EE24FF2404
:100970008701EFEFF0E06E2F679566276795902F60
:100980009F77D794DD24D7948E2F8695492F462BB9
:10099000582F5D29B701CA011F910F91FF90EF9069
:1009A000DF900895FC01DB01408151812281622F9B
:1009B0006F7770E0221F2227221F9381892F880FD3
:1009C000822B282F30E0991F9927991F11969C930D
:1009D000119721153105A9F54115510561057105DD
:1009E00011F482E037C082E89FEF13969C938E93B8
:1009F00012979A01AB0167E0220F331F441F551F66
:100A00006A95D1F783E08C930DC0220F331F441FEA
:100A1000551F12968D919C911397019713969C9355
:100A20008E931297203080E0380780E0480780E4FA
:100A3000580758F314962D933D934D935C93179755
:100A400008952F3F310579F4411551056105710570
:100A500019F484E08C93089564FF03C081E08C93C3
:100A600012C01C9210C02F57304013963C932E9307
:100A7000129783E08C9387E0440F551F661F771F02
:100A80008A95D1F7706414964D935D936D937C9322
:100A9000179708951F93DC01FB019C91923008F495
:100AA00047C08081823008F443C0943051F41196DD
:100AB0001C91843099F58181682F70E0611B710968
:100AC0003FC0843021F0923031F48230B9F181811D
:100AD000882389F12DC011961C9111978230F1F075
:100AE00081811817D9F412962D913C911397828128
:100AF00093818217930794F028173907BCF0149656
:100B00008D919D910D90BC91A02D248135814681C0
:100B10005781281739074A075B0718F4112341F05A
:100B20000AC082179307A407B50740F4112319F0F0
:100B300061E070E005C06FEF7FEF02C060E070E041
:100B4000CB011F910895DF93CF93CDB7DEB780918E
:100B5000680090916900009761F480E060E041E0F6
:100B60000E94160F81E090E09093690080936800E6
:100B700009C080E060E040E00E94160F109269001A
:100B800010926800CF91DF910895DF93CF93CDB796
:100B9000DEB780916A0090916B00009761F480E06D
:100BA00061E041E00E94160F81E090E090936B00BD
:100BB00080936A0009C080E061E040E00E94160F67
:100BC00010926B0010926A00CF91DF910895DF932D
:100BD000CF93CDB7DEB780916C0090916D000097F8
:100BE00061F480E062E041E00E94160F81E090E055
:100BF00090936D0080936C0009C080E062E040E05B
:100C00000E94160F10926D0010926C00CF91DF9130
:100C10000895DF93CF93CDB7DEB72E970FB6F89434
:100C2000DEBF0FBECDBF80E060E041E00E94F30D6B
:100C300080E061E041E00E94F30D80E062E041E08D
:100C40000E94F30D23EA35E080E068EE73E0A9012D
:100C500020E030E00E94CA0625EC35E081E068EE35
:100C600073E0A90120E030E00E94CA0627EE35E0DB
:100C700082E068EE73E0A90120E030E00E94CA063D
:100C80000E94B80680E090E0AAEFB4E48B879C87CE
:100C9000AD87BE876B857C858D859E8520E030E0A5
:100CA0004AEF54E40E941F02DC01CB018F83988736
:100CB000A987BA876F81788589859A8520E030E099
:100CC00040E85FE30E94790388232CF481E090E000
:100CD0009E838D833FC06F81788589859A8520E0CA
:100CE0003FEF4FE757E40E94190318164CF56B8548
:100CF0007C858D859E8520E030E040E251E40E94B5
:100D00001F02DC01CB01BC01CD010E944900DC01C6
:100D1000CB019E838D830FC088EC90E09C838B83F6
:100D20008B819C810197F1F79C838B838D819E81C0
:100D300001979E838D838D819E81009769F714C0F2
:100D40006F81788589859A850E944900DC01CB01F5
:100D50009E838D838D819E819A83898389819A81E7
:100D60000197F1F79A83898381E00E94F2078ACF85
:100D7000DF93CF93CDB7DEB78DE297E00E943D0AB7
:100D80000E94730C0E94100A81E00E94D00ACF9149
:100D9000DF910895DF93CF93CDB7DEB727970FB6D6
:100DA000F894DEBF0FBECDBF89837B836A835D83EA
:100DB0004C833F832E838981282F30E0C901880F1F
:100DC000991F880F991F880F991F821B930BFC0195
:100DD000E858FF4F8A819B81918380838981282FE6
:100DE00030E0C901880F991F880F991F880F991F3C
:100DF000821B930BFC01E458FF4F8C819D819183F2
:100E000080838981282F30E0C901880F991F880FBE
:100E1000991F880F991F821B930BFC01E658FF4F07
:100E20008E819F81918380838981282F30E0C90141
:100E3000880F991F880F991F880F991F821B930B8A
:100E4000FC01E958FF4F108227960FB6F894DEBFD9
:100E50000FBECDBFCF91DF910895DF93CF930F9257
:100E6000CDB7DEB7198281C08981282F30E0C90152
:100E7000880F991F880F991F880F991F821B930B4A
:100E8000FC01E958FF4F8081882309F06BC08981FC
:100E9000282F30E0C901880F991F880F991F880FEC
:100EA000991F821B930BFC01E658FF4F80819181B3
:100EB0000097B1F58981282F30E0C901880F991F6B
:100EC000880F991F880F991F821B930BFC01E45810
:100ED000FF4F0190F081E02D09958981482F50E066
:100EE0008981282F30E0C901880F991F880F991F29
:100EF000880F991F821B930BFC01E858FF4F20813C
:100F00003181CA01880F991F880F991F880F991F77
:100F1000841B950BFC01E658FF4F3183208322C0D0
:100F20008981282F30E0C901880F991F880F991FE8
:100F3000880F991F821B930BFC01E658FF4F80819D
:100F40009181AC0141505040C901880F991F880F11
:100F5000991F880F991F821B930BFC01E658FF4FC6
:100F60005183408389818F5F89838981833008F42D
:100F70007BCF0F90CF91DF910895DF93CF930F92A6
:100F8000CDB7DEB789838981282F30E0C901880F6A
:100F9000991F880F991F880F991F821B930BFC01C3
:100FA000E458FF4F118210820F90CF91DF91089586
:100FB000DF93CF930F92CDB7DEB789838981282F36
:100FC00030E0C901880F991F880F991F880F991F5A
:100FD000821B930BFC01E958FF4F10820F90CF91B9
:100FE000DF910895DF93CF930F92CDB7DEB789835A
:100FF0008981282F30E0C901880F991F880F991F18
:10100000880F991F821B930BFC01E958FF4F81E069
:1010100080830F90CF91DF910895DF93CF93CDB769
:10102000DEB7A1E4B0E0E1E4F0E0808188608C9379
:10103000CF91DF910895DF93CF93CDB7DEB7E1E491
:10104000F0E088E18083E1E4F0E01082CF91DF916D
:101050000895DF93CF930F92CDB7DEB7898389814F
:10106000883078F4A1E4B0E0E1E4F0E080818875B4
:101070008C93A1E4B0E0E1E4F0E090818981892BD8
:101080008C930F90CF91DF910895DF93CF930F92C0
:10109000CDB7DEB7198289818068898389818F7B8A
:1010A000898389818062898389818F7E898389810F
:1010B000877F89838981826089838981846089832C
:1010C000E0E4F0E089818083E9E2F0E083E380837B
:1010D000AAE2B0E0EAE2F0E0808180618C93AAE2CB
:1010E000B0E0EAE2F0E0808188608C930F90CF91CD
:1010F000DF910895DF93CF930F92CDB7DEB7898349
:10110000EBE2F0E08081829586958770882F90E0F1
:10111000817090700097A1F3ECE2F0E08981808308
:101120000F90CF91DF910895DF93CF9300D0CDB78B
:10113000DEB79A8389830BC0E981FA812081898196
:101140009A8101969A838983822F0E947A08E98185
:10115000FA818081882381F70F900F90CF91DF91E2
:101160000895DF93CF93CDB7DEB7EBE2F0E0808157
:101170008823DCF7ECE2F0E08081CF91DF910895E5
:101180000F931F93DF93CF9300D000D0CDB7DEB77E
:101190008A837C836B83198219820FC08981282FEF
:1011A00030E08B819C818C01020F131F0E94B108DB
:1011B000F801808389818F5F898399818A8198175B
:1011C00068F30F900F900F900F90CF91DF911F91C8
:1011D0000F910895DF93CF93CDB7DEB7A1E2B0E0D2
:1011E000E1E2F0E080818E7F8C93A1E2B0E0E1E269
:1011F000F0E080818D7F8C93E0E2F0E084E18083F9
:10120000A6E5B0E0E6E5F0E0808184608C93CF91C4
:10121000DF910895DF93CF930F92CDB7DEB7898327
:10122000E2E2F0E08981880F8083A6E5B0E0E6E5A0
:10123000F0E0808184608C930F90CF91DF910895CE
:10124000DF93CF9300D0CDB7DEB71982A6E5B0E02B
:10125000E6E5F0E0808180688C93A6E5B0E0E6E505
:10126000F0E0808180628C93E6E5F0E08081882365
:10127000DCF7E1E2F0E0808182E0898389810F90F0
:101280000F90CF91DF910895DF93CF930F92CDB759
:10129000DEB70F90CF91DF910895DF93CF9300D009
:1012A0000F92CDB7DEB78A831982A6E5B0E0E6E5F6
:1012B000F0E0808180688C93A6E5B0E0E6E5F0E0A0
:1012C00080818F7D8C93E3E2F0E08A81880F8083B8
:1012D000A3E2B0E0E3E2F0E080818E7F8C93E6E56C
:1012E000F0E080818823DCF7E1E2F0E0808183E0B8
:1012F000898389810F900F900F90CF91DF9108958E
:10130000DF93CF9300D00F92CDB7DEB78A831982D7
:10131000A6E5B0E0E6E5F0E0808180688C93A6E584
:10132000B0E0E6E5F0E080818F7D8C93E3E2F0E0D1
:101330008A81880F8083A3E2B0E0E3E2F0E080815D
:101340008E7F8C93E6E5F0E080818823DCF7E1E294
:10135000F0E0808184E0898389810F900F900F9065
:10136000CF91DF910895DF93CF9300D00F92CDB747
:10137000DEB78A831982A6E5B0E0E6E5F0E0808179
:1013800080688C93E3E2F0E08A818083E6E5F0E018
:1013900080818823DCF7E1E2F0E0808185E08983C9
:1013A00089810F900F900F90CF91DF910895DF9377
:1013B000CF9300D000D0CDB7DEB79B838A8319824C
:1013C000A6E5B0E0E6E5F0E0808180688C93E6E594
:1013D000F0E080818823DCF7E1E2F0E0808186E0C4
:1013E000898389810F900F900F900F90CF91DF919B
:1013F0000895DF93CF930F92CDB7DEB7A6E5B0E0A7
:10140000E6E5F0E0808180688C93A6E5B0E0E6E553
:10141000F0E0808180618C930F90CF91DF910895EF
:10142000DF93CF93CDB7DEB7A3E5B0E0E3E5F0E01F
:1014300080818F7B8C93A3E5B0E0E3E5F0E08081D1
:10144000877F8C93A3E5B0E0E3E5F0E08081887FBF
:101450008C93A3E5B0E0E3E5F0E0808182608C93BB
:10146000CF91DF910895DF93CF93CDB7DEB7E3E55A
:10147000F0E01082CF91DF910895DF93CF9300D0F9
:101480000F92CDB7DEB79B838A8319828A819B81B5
:10149000009739F08A819B8190936F0080936E0052
:1014A00002C081E0898389810F900F900F90CF91C6
:1014B000DF9108951F920F920FB60F9211242F9370
:1014C0003F934F935F936F937F938F939F93AF93CC
:1014D000BF93EF93FF93DF93CF93CDB7DEB7E09148
:1014E0007000F09171000995CF91DF91FF91EF911C
:1014F000BF91AF919F918F917F916F915F914F912C
:101500003F912F910F900FBE0F901F9018951F9233
:101510000F920FB60F9211242F933F934F935F9327
:101520006F937F938F939F93AF93BF93EF93FF93AB
:10153000DF93CF93CDB7DEB7E0916E00F0916F00EF
:101540000995CF91DF91FF91EF91BF91AF919F915D
:101550008F917F916F915F914F913F912F910F905C
:101560000FBE0F901F901895DF93CF930F92CDB7BA
:10157000DEB78983E2E5F0E0898180830F90CF9127
:10158000DF910895DF93CF930F92CDB7DEB78983B4
:10159000ECE5F0E0898180830F90CF91DF91089591
:1015A000DF93CF930F92CDB7DEB7898389818130E6
:1015B00041F4A9E5B0E0E9E5F0E0808181608C9339
:1015C00007C0A9E5B0E0E9E5F0E080818E7F8C936B
:1015D0000F90CF91DF910895DF93CF930F92CDB706
:1015E000DEB789838981813041F4A9E5B0E0E9E57E
:1015F000F0E0808182608C9307C0A9E5B0E0E9E566
:10160000F0E080818D7F8C930F90CF91DF910895D2
:10161000DF93CF9300D00F92CDB7DEB79B838A8341
:1016200019828A819B81009741F08A819B819093E6
:10163000710080937000198202C081E089838981E2
:101640000F900F900F90CF91DF910895DF93CF937C
:10165000CDB7DEB7AFE4B0E0EFE4F0E080818E7F9D
:101660008C93AFE4B0E0EFE4F0E0808182608C9393
:10167000AEE4B0E0EEE4F0E0808188608C93AEE40C
:10168000B0E0EEE4F0E0808180618C93AFE4B0E004
:10169000EFE4F0E080818F7B8C93AFE4B0E0EFE487
:1016A000F0E0808180688C93AEE4B0E0EEE4F0E09E
:1016B0008081887F8C93AEE4B0E0EEE4F0E080813E
:1016C00082608C93A9E5B0E0E9E5F0E08081837861
:1016D0008C93CF91DF910895DF93CF93CDB7DEB791
:1016E000AFE4B0E0EFE4F0E080818E7F8C93AFE474
:1016F000B0E0EFE4F0E080818D7F8C93AEE4B0E069
:10170000EEE4F0E08081877F8C93AEE4B0E0EEE41D
:10171000F0E080818F7E8C93AEE4B0E0EEE4F0E008
:10172000808180688C93AEE4B0E0EEE4F0E08081EC
:1017300080648C93A9E5B0E0E9E5F0E08081806207
:101740008C93AEE4B0E0EEE4F0E08081887F8C938F
:10175000AEE4B0E0EEE4F0E0808182608C93CF9163
:10176000DF910895DF93CF93CDB7DEB7E6E4F0E0E5
:1017700080819181CF91DF910895DF93CF9300D045
:10178000CDB7DEB79A838983E6E4F0E089819A8158
:10179000918380830F900F90CF91DF910895DF9315
:1017A000CF9300D0CDB7DEB79A838983EAE4F0E027
:1017B00089819A81918380830F900F90CF91DF91DF
:1017C0000895DF93CF930F92CDB7DEB789838981D8
:1017D000813041F4AEE4B0E0EEE4F0E0808180647A
:1017E0008C9307C0AEE4B0E0EEE4F0E080818F7B44
:1017F0008C930F90CF91DF910895DF93CF93CDB766
:10180000DEB7EFE4F0E01082EEE4F0E01082E9E50C
:10181000F0E01082CF91DF910895DF93CF930F9284
:10182000CDB7DEB789838981882391F5ADE2B0E039
:10183000EDE2F0E0808180618C93ADE2B0E0EDE21A
:10184000F0E08081877F8C93ADE2B0E0EDE2F0E0E4
:1018500080818B7F8C93ADE2B0E0EDE2F0E080819F
:101860008E7F8C93ADE2B0E0EDE2F0E080818260AB
:101870008C93AEE2B0E0EEE2F0E080818E7F8C935C
:10188000ADE2B0E0EDE2F0E0808180648C9311C0C5
:101890008981813071F4ADE2B0E0EDE2F0E0808169
:1018A0008F7E8C93ADE2B0E0EDE2F0E08081806469
:1018B0008C930F90CF91DF910895DF93CF930F9288
:1018C000CDB7DEB78983EFE2F0E089818083EEE275
:1018D000F0E080818823DCF7EFE2F0E080810F9078
:1018E000CF91DF910895DF93CF93CDB7DEB7AFE50A
:1018F000B0E0EFE5F0E0808180688C93CF91DF91DC
:101900000895DF93CF93CDB7DEB7AFE5B0E0EFE555
:10191000F0E080818F778C93CF91DF910895DF93F2
:10192000CF9300D000D0CDB7DEB789836A83898199
:10193000282F30E03C832B838B819C818130910563
:1019400001F12B813C812230310589F18B819C8111
:10195000009709F041C08A81813041F4ABE5B0E0E5
:10196000EBE5F0E0808180648C9336C08A81882327
:1019700099F5ABE5B0E0EBE5F0E080818F7B8C93EF
:101980002BC08A81813041F4ABE5B0E0EBE5F0E0BB
:10199000808180688C9320C08A818823E9F4ABE53C
:1019A000B0E0EBE5F0E080818F778C9315C08A8101
:1019B000813041F4ABE5B0E0EBE5F0E0808180629E
:1019C0008C930AC08A81882339F4ABE5B0E0EBE55B
:1019D000F0E080818F7D8C930F900F900F900F908F
:1019E000CF91DF910895DF93CF93CDB7DEB72A97DC
:1019F0000FB6F894DEBF0FBECDBF89836A8389819D
:101A0000282F30E03A87298789859A85813091058A
:101A100009F466C029853A852230310509F4BBC036
:101A200089859A85009709F0D5C08A81282F30E0F2
:101A300038872F838F8198858130910521F12F81FF
:101A40003885223031052CF48F819885009761F01C
:101A5000C1C02F8138852230310521F18F819885D1
:101A60008330910571F1B6C0A5E5B0E0E5E5F0E0A1
:101A700080818E7F8C93A5E5B0E0E5E5F0E0808184
:101A80008D7F8C93A7C0A5E5B0E0E5E5F0E080810F
:101A900081608C93A5E5B0E0E5E5F0E080818D7F85
:101AA0008C9398C0A5E5B0E0E5E5F0E080818E7FFD
:101AB0008C93A5E5B0E0E5E5F0E0808182608C9351
:101AC00089C0A5E5B0E0E5E5F0E0808181608C9318
:101AD000A5E5B0E0E5E5F0E0808182608C937AC016
:101AE0008A81282F30E03E832D838D819E81813035
:101AF000910521F12D813E81223031052CF48D811B
:101B00009E81009761F066C02D813E8122303105B3
:101B100021F18D819E818330910571F15BC0A5E536
:101B2000B0E0E5E5F0E080818B7F8C93A5E5B0E047
:101B3000E5E5F0E08081877F8C934CC0A5E5B0E0BF
:101B4000E5E5F0E0808184608C93A5E5B0E0E5E513
:101B5000F0E08081877F8C933DC0A5E5B0E0E5E5AE
:101B6000F0E080818B7F8C93A5E5B0E0E5E5F0E0C7
:101B7000808188608C932EC0A5E5B0E0E5E5F0E0BB
:101B8000808184608C93A5E5B0E0E5E5F0E080819C
:101B900088608C931FC08A81282F30E03C832B8380
:101BA0008B819C818230910531F02B813C812330E7
:101BB000310549F00FC0A4E5B0E0E4E5F0E0808134
:101BC00080648C9307C0A4E5B0E0E4E5F0E0808198
:101BD0008F7B8C932A960FB6F894DEBF0FBECDBFD5
:101BE000CF91DF910895DF93CF93CDB7DEB72D97D7
:101BF0000FB6F894DEBF0FBECDBF89836A834B83D7
:101C00008981843008F009C18A81883008F005C1D3
:101C10008B81823008F001C18981282F30E03D8717
:101C20002C878C859D858130910509F44FC02C85CA
:101C30003D85223031052CF48C859D85009771F00F
:101C4000ECC02C853D852230310509F477C08C85A8
:101C50009D858330910509F4A9C0DFC08B81282FB1
:101C600030E03B872A878A859B85009731F02A855B
:101C70003B8521303105B1F0D0C0AAE3B0E0EAE302
:101C8000F0E08081482F8A81282F30E081E090E0C9
:101C9000022E02C0880F991F0A94E2F780958423D0
:101CA0008C93BBC0AAE3B0E0EAE3F0E08081482F68
:101CB0008A81282F30E081E090E0022E02C0880F58
:101CC000991F0A94E2F7842B8C93A7C08B81282F4D
:101CD00030E03987288788859985009731F02885F5
:101CE000398521303105B1F098C0A7E3B0E0E7E3D2
:101CF000F0E08081482F8A81282F30E081E090E059
:101D0000022E02C0880F991F0A94E2F7809584235F
:101D10008C9383C0A7E3B0E0E7E3F0E08081482F35
:101D20008A81282F30E081E090E0022E02C0880FE7
:101D3000991F0A94E2F7842B8C936FC08B81282F14
:101D400030E03F832E838E819F81009731F02E817A
:101D50003F8121303105B1F060C0A4E3B0E0E4E39D
:101D6000F0E08081482F8A81282F30E081E090E0E8
:101D7000022E02C0880F991F0A94E2F780958423EF
:101D80008C934BC0A4E3B0E0E4E3F0E08081482F03
:101D90008A81282F30E081E090E0022E02C0880F77
:101DA000991F0A94E2F7842B8C9337C08B81282FDC
:101DB00030E03D832C838C819D81009731F02C8114
:101DC0003D8121303105B1F028C0A1E3B0E0E1E36D
:101DD000F0E08081482F8A81282F30E081E090E078
:101DE000022E02C0880F991F0A94E2F7809584237F
:101DF0008C9313C0A1E3B0E0E1E3F0E08081482FD1
:101E00008A81282F30E081E090E0022E02C0880F06
:101E1000991F0A94E2F7842B8C932D960FB6F894B1
:101E2000DEBF0FBECDBFCF91DF910895DF93CF937B
:101E3000CDB7DEB72D970FB6F894DEBF0FBECDBF7E
:101E400089836A834B838981843008F009C18A8140
:101E5000883008F005C18B81823008F001C189818A
:101E6000282F30E03D872C878C859D85813091051A
:101E700009F44FC02C853D85223031052CF48C852A
:101E80009D85009771F0ECC02C853D852230310591
:101E900009F477C08C859D858330910509F4A9C02C
:101EA000DFC08B81282F30E03B872A878A859B857E
:101EB000009731F02A853B8521303105B1F0D0C043
:101EC000ABE3B0E0EBE3F0E08081482F8A81282F7C
:101ED00030E081E090E0022E02C0880F991F0A9442
:101EE000E2F7809584238C93BBC0ABE3B0E0EBE3D7
:101EF000F0E08081482F8A81282F30E081E090E057
:101F0000022E02C0880F991F0A94E2F7842B8C934B
:101F1000A7C08B81282F30E039872887888599854D
:101F2000009731F02885398521303105B1F098C00E
:101F3000A8E3B0E0E8E3F0E08081482F8A81282F11
:101F400030E081E090E0022E02C0880F991F0A94D1
:101F5000E2F7809584238C9383C0A8E3B0E0E8E3A4
:101F6000F0E08081482F8A81282F30E081E090E0E6
:101F7000022E02C0880F991F0A94E2F7842B8C93DB
:101F80006FC08B81282F30E03F832E838E819F810D
:101F9000009731F02E813F8121303105B1F060C0D2
:101FA000A5E3B0E0E5E3F0E08081482F8A81282FA7
:101FB00030E081E090E0022E02C0880F991F0A9461
:101FC000E2F7809584238C934BC0A5E3B0E0E5E372
:101FD000F0E08081482F8A81282F30E081E090E076
:101FE000022E02C0880F991F0A94E2F7842B8C936B
:101FF00037C08B81282F30E03D832C838C819D81DD
:10200000009731F02C813D8121303105B1F028C09D
:10201000A2E3B0E0E2E3F0E08081482F8A81282F3C
:1020200030E081E090E0022E02C0880F991F0A94F0
:10203000E2F7809584238C9313C0A2E3B0E0E2E33F
:10204000F0E08081482F8A81282F30E081E090E005
:10205000022E02C0880F991F0A94E2F7842B8C93FA
:102060002D960FB6F894DEBF0FBECDBFCF91DF9196
:102070000895DF93CF9300D000D00F92CDB7DEB795
:102080008A836B838A81843008F06BC08B818830AF
:1020900008F067C08A81282F30E03D832C834C8173
:1020A0005D814130510541F18C819D8182309105E6
:1020B00034F42C813D812115310561F052C04C81F1
:1020C0005D814230510551F18C819D8183309105B4
:1020D000B9F147C0E9E3F0E08081282F30E08B813F
:1020E000882F90E0A90102C0559547958A95E2F79F
:1020F000CA018170898335C0E6E3F0E08081282F32
:1021000030E08B81882F90E0A90102C0559547955A
:102110008A95E2F7CA018170898323C0E3E3F0E086
:102120008081282F30E08B81882F90E0A90102C0A8
:10213000559547958A95E2F7CA018170898311C048
:10214000E0E3F0E08081282F30E08B81882F90E061
:10215000A90102C0559547958A95E2F7CA01817099
:10216000898389810F900F900F900F900F90CF91DE
:10217000DF910895DF93CF9300D000D0CDB7DEB7C5
:1021800089836A838981843008F072C08A818830AB
:1021900008F06EC08981282F30E03C832B838B812F
:1021A0009C818130910549F12B813C8122303105A0
:1021B0002CF48B819C81009761F05AC02B813C816B
:1021C0002230310571F18B819C8183309105E9F1D9
:1021D0004FC0ABE3B0E0EBE3F0E08081482F8A81B1
:1021E000282F30E081E090E0022E02C0880F991F76
:1021F0000A94E2F784278C933BC0A8E3B0E0E8E3BD
:10220000F0E08081482F8A81282F30E081E090E043
:10221000022E02C0880F991F0A94E2F784278C933C
:1022200027C0A5E3B0E0E5E3F0E08081482F8A8194
:10223000282F30E081E090E0022E02C0880F991F25
:102240000A94E2F784278C9313C0A2E3B0E0E2E3A0
:10225000F0E08081482F8A81282F30E081E090E0F3
:10226000022E02C0880F991F0A94E2F784278C93EC
:102270000F900F900F900F90CF91DF910895DF9303
:10228000CF9300D000D0CDB7DEB789836A83898130
:10229000843090F58981282F30E03C832B838B811B
:1022A0009C8181309105D1F02B813C812230310518
:1022B0002CF48B819C81009761F01EC02B813C81A6
:1022C0002230310581F08B819C818330910581F032
:1022D00013C0EAE3F0E08A8180830EC0E7E3F0E018
:1022E0008A81808309C0E4E3F0E08A81808304C0AE
:1022F000E1E3F0E08A8180830F900F900F900F90C0
:10230000CF91DF910895DF93CF9300D000D0CDB768
:10231000DEB789836A838981843090F58981282F8B
:1023200030E03C832B838B819C8181309105D1F0FF
:102330002B813C81223031052CF48B819C810097CC
:1023400061F01EC02B813C812230310581F08B81F0
:102350009C818330910581F013C0EBE3F0E08A812A
:1023600080830EC0E8E3F0E08A81808309C0E5E362
:10237000F0E08A81808304C0E2E3F0E08A81808318
:102380000F900F900F900F90CF91DF910895DF93F2
:10239000CF93CDB7DEB7EAE3F0E01082E7E3F0E0F9
:1023A0001082E4E3F0E087E08083E1E3F0E08FEF88
:1023B0008083EBE3F0E01082E8E3F0E084E08083E8
:1023C000E5E3F0E01082E2E3F0E01082CF91DF91EC
:1023D0000895DF93CF93CDB7DEB7A6E2B0E0E6E293
:1023E000F0E08081877F8C93A7E2B0E0E7E2F0E045
:1023F000808180648C93A7E2B0E0E7E2F0E0808126
:102400008F778C93A6E2B0E0E6E2F0E08081816015
:102410008C93A6E2B0E0E6E2F0E0808182608C93EB
:10242000A6E2B0E0E6E2F0E0808184608C93A6E270
:10243000B0E0E6E2F0E0808180688C93CF91DF919C
:102440000895DF93CF9300D00F92CDB7DEB78B8383
:102450001A821982A7E2B0E0E7E2F0E08081807E94
:102460008C93A7E2B0E0E7E2F0E090818B81892BCA
:102470008C93A6E2B0E0E6E2F0E0808180648C9389
:10248000E6E2F0E0808182958F70882F90E0817085
:1024900090700097A9F3E4E2F0E0808191819A8343
:1024A0008983A6E2B0E0E6E2F0E0808180618C936F
:1024B00089819A810F900F900F90CF91DF910895AD
:1024C000DF93CF9300D000D000D0CDB7DEB78A83A2
:1024D0007C836B835E834D83198280917600882391
:1024E00069F581E0809376008B819C8190937300E5
:1024F000809372008D819E8190937500809374000B
:10250000A7E2B0E0E7E2F0E08081807E8C93A7E272
:10251000B0E0E7E2F0E090818A81892B8C93A6E21B
:10252000B0E0E6E2F0E0808188608C93A6E2B0E063
:10253000E6E2F0E0808180648C9302C081E08983D0
:10254000898126960FB6F894DEBF0FBECDBFCF911E
:10255000DF9108951F920F920FB60F9211242F93BF
:102560003F934F935F936F937F938F939F93AF931B
:10257000BF93EF93FF93DF93CF93CDB7DEB7A091D7
:102580007200B0917300E4E2F0E0808191818D935C
:102590009C93E0917400F09175000995A6E2B0E07B
:1025A000E6E2F0E08081877F8C9310927600CF91F5
:1025B000DF91FF91EF91BF91AF919F918F917F91AB
:1025C0006F915F914F913F912F910F900FBE0F90A0
:1025D0001F9018952F923F924F925F926F927F9229
:1025E0008F929F92AF92BF92CF92DF92EF92FF9223
:1025F0000F931F93CF93DF93CDB7DEB7CA1BDB0BCF
:102600000FB6F894DEBF0FBECDBF09942A88398873
:1026100048885F846E847D848C849B84AA84B9847A
:10262000C884DF80EE80FD800C811B81AA81B98186
:10263000CE0FD11D0FB6F894DEBF0FBECDBFED019A
:062640000895F894FFCF9D
:0826460000000000000000008C
:00000001FF
