:100000000C942A000C94F9250C9447000C9447009A
:100010000C9447000C9447000C9447000C94EE0D90
:100020000C9447000C9447000C9447000C94470034
:100030000C9447000C9447000C9447000C94470024
:100040000C9447000C9447000C9447000C94470014
:100050000C94470011241FBECFE5D8E0DEBFCDBF12
:1000600010E0A0E6B0E0EEEFFEE502C005900D92D4
:10007000A038B107D9F714E0A0E8B0E001C01D92A4
:10008000A43EB107E1F70E94CB050C947D2F0C94A0
:100090000000EF92FF920F931F937B018C0120E0F1
:1000A00030E040E05FE40E94490388238CF0C801FF
:1000B000B70120E030E040E05FE40E94C1010E940F
:1000C000A9039B01AC01205030404040504806C07D
:1000D000C801B7010E94A9039B01AC01B901CA0183
:1000E0001F910F91FF90EF900895A0E0B0E0EBE733
:1000F000F0E00C943D2FDC012B01FA019C91923031
:1001000008F439C1EB018881823008F433C194309E
:1001100069F4843009F02FC111969C91119789815F
:10012000981709F428C1A7E7B0E025C1843009F485
:1001300021C18230A9F4923009F01DC19A01AD01AC
:1001400088E0EA010990AE01E90109929E0181501F
:10015000C1F7E201898111969C918923818308C1AD
:10016000923009F407C112962D903C901397EB0141
:100170008A819B811496AD90BD90CD90DC901797AD
:10018000EC80FD800E811F819101281B390BB90184
:1001900037FF04C066277727621B730B6032710537
:1001A0000CF061C0121613066CF537014801062EDB
:1001B00004C096948794779467940A94D2F721E0C8
:1001C00030E040E050E004C0220F331F441F551FB1
:1001D0006A95D2F721503040404050402E213F21B7
:1001E00040235123211531054105510521F021E01E
:1001F00030E040E050E079018A01E628F72808293C
:1002000019293CC0232BD1F1260E371E350146019A
:10021000062E04C096948794779467940A94D2F734
:1002200021E030E040E050E004C0220F331F441FC3
:10023000551F6A95D2F721503040404050402A2146
:100240003B214C215D21211531054105510521F04E
:1002500021E030E040E050E059016A01A628B728CB
:10026000C828D9280BC0821593052CF01C01AA249C
:10027000BB24650103C0EE24FF24870111969C91E5
:10028000D20111968C91981709F445C0992339F041
:10029000A80197012A193B094C095D0906C0A6016E
:1002A00095012E193F09400B510B57FD08C01182D3
:1002B0003382228224833583468357831DC081E0A5
:1002C00081833382228288279927DC01821B930B4A
:1002D000A40BB50B84839583A683B7830DC0220F2F
:1002E000331F441F551F24833583468357838281E0
:1002F000938101979383828324813581468157813D
:10030000DA01C9010197A109B1098F5F9F4FAF4F72
:10031000BF4328F30BC0918333822282EA0CFB1C7B
:100320000C1D1D1DE482F5820683178383E0808304
:10033000248135814681578157FF1AC0C901AA27F8
:1003400097FDA095BA2F81709070A070B0705695EF
:10035000479537952795822B932BA42BB52B848318
:100360009583A683B7838281938101969383828349
:10037000DF0101C0D201CD01CDB7DEB7E2E10C94BF
:10038000592FA0E2B0E0E7ECF1E00C94492F69832B
:100390007A838B839C832D833E834F835887E9E048
:1003A000EE2EF12CEC0EFD1ECE010196B7010E943F
:1003B000D2048E010F5E1F4FCE010596B8010E9438
:1003C000D2048A8991E089278A8BC701B801AE01DE
:1003D000475E5F4F0E9475000E94FD03A096E6E015
:1003E0000C94652FA0E2B0E0E8EFF1E00C94492F07
:1003F00069837A838B839C832D833E834F835887C5
:10040000F9E0EF2EF12CEC0EFD1ECE010196B701A6
:100410000E94D2048E010F5E1F4FCE010596B801D7
:100420000E94D204C701B801AE01475E5F4F0E942F
:1004300075000E94FD03A096E6E00C94652FA0E2F3
:10044000B0E0E5E2F2E00C943D2F69837A838B8380
:100450009C832D833E834F835887CE010196BE0136
:10046000675F7F4F0E94D204CE010596BE016F5E8A
:100470007F4F0E94D2049985923088F0898982301A
:10048000C8F0943019F4823051F404C0843029F457
:10049000923081F487E790E0C6C0923049F420E0C2
:1004A0009A858A89981321E02A87CE010996BBC0D4
:1004B000823049F420E09A858A89981321E02A8BBA
:1004C000CE014196B0C02D843E844F8458886D88FB
:1004D0007E888F88988CEE24FF248701AA24BB2471
:1004E000650140E050E060E070E0E0E0F0E0C10174
:1004F00081709070892BE9F0E60CF71C081D191D1E
:100500009A01AB012A0D3B1D4C1D5D1D80E090E062
:10051000A0E0B0E0E614F7040805190520F481E036
:1005200090E0A0E0B0E0BA01A901480F591F6A1F8E
:100530007B1FAA0CBB1CCC1CDD1C97FE08C081E0F5
:1005400090E0A0E0B0E0A82AB92ACA2ADB2A3196B6
:10055000E032F10549F0660C771C881C991C569412
:10056000479437942794C3CFFA85EA892B893C892D
:100570008B859C85280F391F2E5F3F4F17C0CA01FE
:1005800081709070892B61F016950795F794E79428
:1005900080E090E0A0E0B0E8E82AF92A0A2B1B2BC3
:1005A00076956795579547952F5F3F4F77FDE7CF36
:1005B0000CC0440F551F661F771F17FD4160EE0CDE
:1005C000FF1C001F111F21503040403090E05907A0
:1005D00090E0690790E4790760F32B8F3C8FDB0193
:1005E000CA018F779070A070B07080349105A1051A
:1005F000B10561F447FD0AC0E114F10401051105DC
:1006000029F0405C5F4F6F4F7F4F40781A8EFE1786
:1006100011F081E08A8F4D8F5E8F6F8F78A383E01A
:10062000898FCE0149960E94FD03A096E2E10C94C9
:10063000592FA8E1B0E0EFE1F3E00C94492F698372
:100640007A838B839C832D833E834F83588789E0F5
:10065000E82EF12CEC0EFD1ECE010196B7010E9492
:10066000D2048E010F5E1F4FCE010596B8010E9485
:10067000D2048985823040F08989823028F0C70110
:10068000B8010E944A0501C08FEF6896E6E00C941D
:10069000652FA8E1B0E0EFE4F3E00C94492F698303
:1006A0007A838B839C832D833E834F83588789E095
:1006B000E82EF12CEC0EFD1ECE010196B7010E9432
:1006C000D2048E010F5E1F4FCE010596B8010E9425
:1006D000D2048985823040F08989823028F0C701B0
:1006E000B8010E944A0501C08FEF6896E6E00C94BD
:1006F000652FA8E1B0E0EFE7F3E00C94492F6983A0
:100700007A838B839C832D833E834F83588789E034
:10071000E82EF12CEC0EFD1ECE010196B7010E94D1
:10072000D2048E010F5E1F4FCE010596B8010E94C4
:10073000D2048985823040F08989823028F0C7014F
:10074000B8010E944A0501C081E06896E6E00C9479
:10075000652FACE0B0E0EFEAF3E00C944D2F698335
:100760007A838B839C83CE010196BE016B5F7F4FA2
:100770000E94D2048D81823061F1823050F1843048
:1007800021F48E81882351F12EC02F81388537FDC9
:1007900020C06E812F3131051CF06623F9F023C093
:1007A0008EE190E0821B930B29853A854B855C8511
:1007B00004C056954795379527958A95D2F76623B5
:1007C000B1F050954095309521953F4F4F4F5F4F79
:1007D0000EC020E030E040E050E009C02FEF3FEFD6
:1007E0004FEF5FE704C020E030E040E050E8B9019F
:1007F000CA012C96E2E00C94692FDF92EF92FF92EF
:100800000F931F93FC01E480F58006811781D1804E
:100810008081823048F480E090E0A0E1B0E0E82AF6
:10082000F92A0A2B1B2BA5C0843009F49FC0823003
:1008300021F4EE24FF24870105C0E114F104010531
:10084000110519F4E0E0F0E096C0628173819FEF3A
:10085000623879070CF05BC022E83FEF261B370BAC
:100860002A3131052CF020E030E040E050E02AC091
:10087000B801A701022E04C0769567955795479554
:100880000A94D2F781E090E0A0E0B0E004C0880FC5
:10089000991FAA1FBB1F2A95D2F70197A109B10979
:1008A0008E219F21A023B1230097A105B10521F03E
:1008B00081E090E0A0E0B0E09A01AB01282B392B59
:1008C0004A2B5B2BDA01C9018F779070A070B07052
:1008D00080349105A105B10539F427FF09C0205CDA
:1008E0003F4F4F4F5F4F04C0215C3F4F4F4F5F4F13
:1008F000E0E0F0E02030A0E03A07A0E04A07A0E402
:100900005A0710F0E1E0F0E079018A0127C0603871
:10091000710564F5FB01E158FF4FD801C7018F77DE
:100920009070A070B07080349105A105B10539F4C4
:10093000E7FE0DC080E490E0A0E0B0E004C08FE3EB
:1009400090E0A0E0B0E0E80EF91E0A1F1B1F17FFA1
:1009500005C016950795F794E794319687E01695AC
:100960000795F794E7948A95D1F705C0EE24FF2404
:100970008701EFEFF0E06E2F679566276795902F60
:100980009F77D794DD24D7948E2F8695492F462BB9
:10099000582F5D29B701CA011F910F91FF90EF9069
:1009A000DF900895FC01DB01408151812281622F9B
:1009B0006F7770E0221F2227221F9381892F880FD3
:1009C000822B282F30E0991F9927991F11969C930D
:1009D000119721153105A9F54115510561057105DD
:1009E00011F482E037C082E89FEF13969C938E93B8
:1009F00012979A01AB0167E0220F331F441F551F66
:100A00006A95D1F783E08C930DC0220F331F441FEA
:100A1000551F12968D919C911397019713969C9355
:100A20008E931297203080E0380780E0480780E4FA
:100A3000580758F314962D933D934D935C93179755
:100A400008952F3F310579F4411551056105710570
:100A500019F484E08C93089564FF03C081E08C93C3
:100A600012C01C9210C02F57304013963C932E9307
:100A7000129783E08C9387E0440F551F661F771F02
:100A80008A95D1F7706414964D935D936D937C9322
:100A9000179708951F93DC01FB019C91923008F495
:100AA00047C08081823008F443C0943051F41196DD
:100AB0001C91843099F58181682F70E0611B710968
:100AC0003FC0843021F0923031F48230B9F181811D
:100AD000882389F12DC011961C9111978230F1F075
:100AE00081811817D9F412962D913C911397828128
:100AF00093818217930794F028173907BCF0149656
:100B00008D919D910D90BC91A02D248135814681C0
:100B10005781281739074A075B0718F4112341F05A
:100B20000AC082179307A407B50740F4112319F0F0
:100B300061E070E005C06FEF7FEF02C060E070E041
:100B4000CB011F910895DF93CF9300D0CDB7DEB7CF
:100B50009A8389838091E2049091E3046FEF7FEFA1
:100B60000E9401118130B1F780E690E00E94EA2DE9
:100B7000FFCFDF93CF93CDB7DEB78091E2049091A2
:100B8000E30460E070E040E050E020E00E94FD0EF1
:100B9000CF91DF910895EF92FF920F93DF93CF9360
:100BA000CDB7DEB780E060E041E00E942C2680E017
:100BB00061E041E00E942C2683E062E040E00E9478
:100BC0002C260E94222A0E94782B83E062E041E0DA
:100BD0000E944F2729EB35E080E0B9010E94B32540
:100BE00080E062E00E94B32483EA95E060E070E078
:100BF00044E650E020E030E000E0EE24FF240E94D4
:100C0000111581E060E043E00E94770E9093E304C9
:100C10008093E2048091E2049091E30460E070E04C
:100C200040E050E020E00E94FD0E8091E2049091AF
:100C3000E3046FEF7FEF0E94011180E061E00E940A
:100C40004F240E9433240E944E1AFFCFDF93CF938C
:100C500000D0CDB7DEB78BE090E00E946B099A839D
:100C6000898389819A81009749F0E981FA8111820B
:100C7000108289819A8102960E94E70989819A816E
:100C80000F900F90CF91DF910895DF93CF93CDB761
:100C9000DEB760970FB6F894DEBF0FBECDBF9A8760
:100CA00089877C876B875E874D87388B2F878985FF
:100CB0009A859C838B8319820E948C1AEB81FC811C
:100CC0008081918198878F8389859A852B853C8542
:100CD000B9010E941C082F8138858B859C85282BA3
:100CE000392B8D859E85282339238D859E85281750
:100CF0003907C9F42F8138858B859C85822B932BEE
:100D00009E838D83EB81FC81208131818D859E8541
:100D10008095909582239323EB81FC81918380833E
:100D2000188A1F861EC08F859889009791F08B8145
:100D30009C81BC016E5F7F4F8D859E859C013560D7
:100D40004F855889CB01B9010E942C1D1E821D823E
:100D500008C0EB81FC81808191819E838D8381E03D
:100D600089830E94981A8A838F859889009709F44D
:100D70003AC08A81882311F40E94DC0C0E948D1FE6
:100D80009E838D838D819E8180709270009731F556
:100D90000FB6F8940F92EB81FC81808191819E8344
:100DA0008D832D813E818D859E85282339238D85D8
:100DB0009E852817390771F4EB81FC8120813181F0
:100DC0008D859E858095909582239323EB81FC8170
:100DD000918380830F900FBE81E089838D819E81F6
:100DE00090709E838D838D819E8160960FB6F8945E
:100DF000DEBF0FBECDBFCF91DF9108950F931F933C
:100E0000DF93CF93CDB7DEB763970FB6F894DEBF0D
:100E10000FBECDBF9D878C877F876E87488B298BC0
:100E20001B8B0A8B8C859D859B878A871F821E82E0
:100E30001B820E948C1AEA85FB85808191819A83AE
:100E4000898389819A812E853F85B90149890E94CC
:100E500039098D838D818823C1F089819A81998791
:100E600088871B8A1A8A88898823E9F1EA85FB85A5
:100E7000208131818E859F85809590958223932353
:100E8000EA85FB85918380832EC08A899B890097A0
:100E900039F489819A819987888781E08B8323C07F
:100EA0008889882329F08E819F8191609F838E831A
:100EB0008989882329F08E819F8194609F838E8306
:100EC0008A859B85BC016E5F7F4F2E853F858E8115
:100ED0009F81282B392B4A895B89CB01B9010E945C
:100EE0002C1D198618860E94981A8C838A899B89E2
:100EF000009709F43CC08C81882311F40E94DC0C1B
:100F00000E948D1F99878887888599858070927047
:100F1000009741F50FB6F8940F92EA85FB85808122
:100F2000918199878887888599852E853F85B90124
:100F300049890E943909882389F08889882371F0BA
:100F4000EA85FB85208131818E859F8580959095EE
:100F500082239323EA85FB859183808381E08B83C1
:100F60000F900FBE888599859070998788878885AE
:100F7000998563960FB6F894DEBF0FBECDBFCF91B3
:100F8000DF911F910F910895DF93CF93CDB7DEB717
:100F900028970FB6F894DEBF0FBECDBF9E838D831A
:100FA00078876F838D819E819C838B830FB6F894A5
:100FB0000F92EB81FC81808191819A838983EB81FF
:100FC000FC81208131818F81988580959095822345
:100FD0009323EB81FC81918380830F900FBE8981E5
:100FE0009A8128960FB6F894DEBF0FBECDBFCF9181
:100FF000DF910895DF93CF93CDB7DEB727970FB674
:10100000F894DEBF0FBECDBF9F838E838E819F81FC
:101010009C838B831D82EB81FC81808191819A83EB
:10102000898389819A8127960FB6F894DEBF0FBE17
:10103000CDBFCF91DF910895DF93CF93CDB7DEB7CA
:1010400065970FB6F894DEBF0FBECDBF9B8B8A8B22
:101050007D8B6C8B198618868A899B899B838A83F2
:1010600019828A819B8102969B878A878A859B85C4
:1010700003969D878C870E948C1AEA85FB85858163
:101080009681998B888BEA81FB81208131818C89C3
:101090009D89822B932BEA81FB819183808359C0A8
:1010A000E889F989828193819F878E87E889F98908
:1010B000808191819F838E8319828E819F81807030
:1010C0009D838C838E819F8190709F838E838C8182
:1010D0009D8180709470009769F4EA81FB81208182
:1010E00031818E819F8182239323009791F081E04B
:1010F00089830FC0EA81FB81208131818E819F81AC
:10110000282339238E819F812817390711F481E024
:10111000898389818823C9F08C819D818070917039
:10112000009741F0888599852E813F81822B932BF2
:1011300099878887EA81FB81808191819C01326057
:1011400088899989B9010E94C71D8E859F85998BD1
:10115000888B288939898C859D852817390709F05E
:101160009FCFEA81FB812081318188859985809597
:10117000909582239323EA81FB81918380830E944F
:10118000981AEA81FB818081918165960FB6F89467
:10119000DEBF0FBECDBFCF91DF910895DF93CF9318
:1011A00000D000D000D0CDB7DEB79E838D838D8177
:1011B0009E819C838B838B819C8102969A838983F9
:1011C0000E948C1A08C0E981FA818581968160E0CD
:1011D00072E00E94C71DE981FA818081882399F716
:1011E0008B819C810E94C1090E94981A26960FB695
:1011F000F894DEBF0FBECDBFCF91DF910895DF938E
:10120000CF9300D000D000D0CDB7DEB79A838983CA
:101210004B835C836D837E8389819A812B813C81A2
:10122000B9010E941C0826960FB6F894DEBF0FBEC7
:10123000CDBFCF91DF910895DF93CF9300D000D041
:1012400000D0CDB7DEB79A8389834B835C836D83EF
:101250007E8389819A812B813C81B9010E94C407D8
:1012600026960FB6F894DEBF0FBECDBFCF91DF91AB
:101270000895DF93CF9300D000D000D0CDB7DEB774
:101280009B838A837D836C834E8319828E8188231E
:1012900059F48A819B812C813D818223932300977D
:1012A00081F081E089830DC02A813B818C819D8101
:1012B000282339238C819D812817390711F481E077
:1012C0008983898126960FB6F894DEBF0FBECDBF05
:1012D000CF91DF910895DF93CF9300D000D0CDB7A9
:1012E000DEB79C838B831A8219820E948C1A8091AC
:1012F000820090918300009731F485E890E090930C
:1013000083008093820080918000909181002B81E6
:101310003C81820F931F23E0873E920738F520918E
:101320008000309181008B819C81280F391F809132
:1013300080009091810082179307C0F42091820071
:10134000309183008091800090918100820F931FE3
:101350009A83898320918000309181008B819C81C8
:10136000820F931F90938100809380000E94981AAF
:1013700089819A810F900F900F900F90CF91DF91FC
:101380000895DF93CF9300D0CDB7DEB79A838983DA
:101390000F900F90CF91DF910895DF93CF93CDB74A
:1013A000DEB71092810010928000CF91DF910895F6
:1013B000DF93CF93CDB7DEB72091800030918100CD
:1013C00087EE93E0821B930BCF91DF910895DF931B
:1013D000CF9300D0CDB7DEB79A83898389819A8174
:1013E0000396E981FA8192838183E981FA818FEF03
:1013F0009FEF9483838389819A810396E981FA819F
:101400009683858389819A810396E981FA81908701
:101410008783E981FA8110820F900F90CF91DF913D
:101420000895DF93CF9300D0CDB7DEB79A83898339
:10143000E981FA81118610860F900F90CF91DF918C
:101440000895DF93CF9300D000D000D0CDB7DEB7A2
:101450009C838B837E836D83EB81FC818181928170
:101460009A838983ED81FE8189819A819383828326
:10147000E981FA8184819581ED81FE819583848360
:10148000E981FA810480F581E02D8D819E8193832D
:101490008283E981FA818D819E8195838483ED81A8
:1014A000FE818B819C8191878087EB81FC8180818B
:1014B0008F5FEB81FC81808326960FB6F894DEBFA8
:1014C0000FBECDBFCF91DF910895DF93CF93CDB7FE
:1014D000DEB728970FB6F894DEBF0FBECDBF9E8350
:1014E0008D8378876F83EF81F885808191819A83DE
:1014F000898389819A812FEF8F3F920739F4ED819B
:10150000FE81878190859C838B8318C08D819E810D
:1015100003969C838B8306C0EB81FC81828193813F
:101520009C838B83EB81FC810280F381E02D208101
:10153000318189819A818217930770F7EB81FC8151
:1015400082819381EF81F88593838283EF81F8858F
:101550000280F381E02D8F81988595838483EF81CC
:10156000F8858B819C8195838483EB81FC818F81BD
:10157000988593838283EF81F8858D819E81918701
:101580008087ED81FE8180818F5FED81FE81808388
:1015900028960FB6F894DEBF0FBECDBFCF91DF9176
:1015A0000895DF93CF9300D000D0CDB7DEB79C83F2
:1015B0008B83EB81FC81808591859A838983EB8184
:1015C000FC81A281B381EB81FC8184819581159698
:1015D0009C938E931497EB81FC81A481B581EB8160
:1015E000FC818281938113969C938E931297E9815B
:1015F000FA81218132818B819C812817390741F43E
:10160000EB81FC8184819581E981FA8192838183D8
:10161000EB81FC8111861086E981FA8180818150FD
:10162000E981FA818083E981FA8180810F900F90AE
:101630000F900F90CF91DF910895DF93CF93CDB7A7
:10164000DEB728970FB6F894DEBF0FBECDBF9C83E0
:101650008B837E836D8358874F83EB81FC8181E18F
:1016600080838B819C8101979C838B83EB81FC81A0
:1016700082E280838B819C8101979C838B83EB81A9
:10168000FC8183E380838B819C8101979C838B8386
:101690008D819E819A8389838981EB81FC818083FE
:1016A0008B819C8101979C838B8389819A81892F6F
:1016B00099279A8389838981EB81FC8180838B813F
:1016C0009C8101979C838B83EB81FC8110828B81B1
:1016D0009C8101979C838B83EB81FC8180E88083D4
:1016E0008B819C8101979C838B83EB81FC81108291
:1016F0008B819C8101979C838B83EB81FC8182E0B1
:1017000080838B819C8101979C838B83EB81FC81FF
:1017100083E080838B819C8101979C838B83EB8109
:10172000FC8184E080838B819C8101979C838B83E7
:10173000EB81FC8185E080838B819C8101979C8378
:101740008B83EB81FC8186E080838B819C81019778
:101750009C838B83EB81FC8187E080838B819C81E0
:1017600001979C838B83EB81FC8188E080838B8154
:101770009C8101979C838B83EB81FC8189E0808332
:101780008B819C8101979C838B83EB81FC8180E121
:1017900080838B819C8101979C838B83EB81FC816F
:1017A00081E180838B819C8101979C838B83EB817A
:1017B000FC8182E180838B819C8101979C838B8358
:1017C000EB81FC8183E180838B819C8101979C83E9
:1017D0008B83EB81FC8184E180838B819C810197E9
:1017E0009C838B83EB81FC8185E180838B819C8151
:1017F00001979C838B83EB81FC8186E180838B81C5
:101800009C8101979C838B83EB81FC8187E18083A2
:101810008B819C8101979C838B83EB81FC8188E188
:1018200080838B819C8101979C838B83EB81FC81DE
:1018300089E180838B819C8101979C838B83EB81E1
:10184000FC8180E280838B819C8101979C838B83C8
:10185000EB81FC8181E280838B819C8101979C8359
:101860008B83EB81FC8182E280838B819C81019759
:101870009C838B83EB81FC8183E280838B819C81C1
:1018800001979C838B838F8198859A838983898133
:10189000EB81FC8180838B819C8101979C838B836E
:1018A00089819A81892F99279A8389838981EB81FC
:1018B000FC8180838B819C8101979C838B83EB814E
:1018C000FC8186E280838B819C8101979C838B8342
:1018D000EB81FC8187E280838B819C8101979C83D3
:1018E0008B83EB81FC8188E280838B819C810197D3
:1018F0009C838B83EB81FC8189E280838B819C813B
:1019000001979C838B83EB81FC8180E380838B81B7
:101910009C8101979C838B83EB81FC8181E3808395
:101920008B819C8101979C838B838B819C812896E2
:101930000FB6F894DEBF0FBECDBFCF91DF910895F3
:10194000DF93CF93CDB7DEB70E94920DA0916C04C8
:10195000B0916D04CD91CDBFDD91DEBFFF91EF91D0
:10196000DF91CF91BF91AF919F918F917F916F91B7
:101970005F914F913F912F911F910F91FF90EF90A9
:10198000DF90CF90BF90AF909F908F907F906F909F
:101990005F904F903F902F901F900F900FBE0F9031
:1019A000089581E0CF91DF910895DF93CF93CDB774
:1019B000DEB7CF91DF9108950F920FB6F8940F9292
:1019C0001F9211242F923F924F925F926F927F92BB
:1019D0008F929F92AF92BF92CF92DF92EF92FF923F
:1019E0000F931F932F933F934F935F936F937F9327
:1019F0008F939F93AF93BF93CF93DF93EF93FF9317
:101A0000A0916C04B0916D040DB60D920EB60D92BE
:101A10000E949D1CA0916C04B0916D04CD91CDBF2E
:101A2000DD91DEBFFF91EF91DF91CF91BF91AF913B
:101A30009F918F917F916F915F914F913F912F91E6
:101A40001F910F91FF90EF90DF90CF90BF90AF90DC
:101A50009F908F907F906F905F904F903F902F90CE
:101A60001F900F900FBE0F9008950F920FB6F8942D
:101A70000F921F9211242F923F924F925F926F927A
:101A80007F928F929F92AF92BF92CF92DF92EF920E
:101A9000FF920F931F932F933F934F935F936F93F7
:101AA0007F938F939F93AF93BF93CF93DF93EF93E6
:101AB000FF93A0916C04B0916D040DB60D920EB61B
:101AC0000D920E94B41B882311F00E949D1CA091CE
:101AD0006C04B0916D04CD91CDBFDD91DEBFFF915F
:101AE000EF91DF91CF91BF91AF919F918F917F91B6
:101AF0006F915F914F913F912F911F910F91FF90A7
:101B0000EF90DF90CF90BF90AF909F908F907F909D
:101B10006F905F904F903F902F901F900F900FBE4F
:101B20000F900895DF93CF9300D000D000D0CDB7B1
:101B3000DEB780E49FE1A0E0B0E08B839C83AD83BF
:101B4000BE838B819C81AD81BE81689415F8B6956A
:101B5000A795979587951694D1F78B839C83AD8332
:101B6000BE838B819C81AD81BE810197A109B109A2
:101B70008B839C83AD83BE838B8189838B819C8186
:101B8000AD81BE81892F9A2FAB2FBB278B839C837E
:101B9000AD83BE838B818A83EBE4F0E08A8180830E
:101BA000EAE4F0E0898180838BE08983EEE4F0E071
:101BB00089818083E9E5F0E0808189838981806182
:101BC0008983E9E5F0E08981808326960FB6F89451
:101BD000DEBF0FBECDBFCF91DF9108950E94350DBE
:101BE0001895DF93CF9300D000D00F92CDB7DEB71A
:101BF0009C838B836D838B819C819A8389830FB6B1
:101C0000F8940F92E981FA8140815181E981FA814A
:101C1000838D282F30E0E981FA81848D882F90E030
:101C2000BC01269FC001279F900D369F900D112467
:101C3000840F951FE981FA8195838483E981FA8174
:101C4000128EE981FA8180819181E981FA81938301
:101C50008283E981FA8140815181E981FA81838D12
:101C6000882F90E09C0121503040E981FA81848DD9
:101C7000882F90E0BC01269FC001279F900D369FC2
:101C8000900D1124840F951FE981FA819783868333
:101C9000E981FA818FEF858FE981FA818FEF868F55
:101CA0008D81882379F4E981FA8180858823A1F0E8
:101CB00089819A8108960E945C1D882369F00E94A0
:101CC000DC0C0AC089819A8108960E94E709898103
:101CD0009A8141960E94E7090F900FBE81E00F9014
:101CE0000F900F900F900F90CF91DF9108950F9369
:101CF0001F93DF93CF93CDB7DEB729970FB6F89434
:101D0000DEBF0FBECDBF8F83688749878F81282FA5
:101D100030E08885882F90E0AC01249FC001259F8A
:101D2000900D349F900D11249C838B838B819C811B
:101D30004F960E946B099E838D838D819E810097B3
:101D4000A1F08D819E819A83898389819A814F96A2
:101D50009A83898329813A81ED81FE818F8168850B
:101D6000A90129858F010E94C20E8D819E8129962D
:101D70000FB6F894DEBF0FBECDBFCF91DF911F919C
:101D80000F9108950F931F93DF93CF93CDB7DEB7D5
:101D900027970FB6F894DEBF0FBECDBF89836A8345
:101DA0005C834B832D831F830E838A81882339F4C0
:101DB0008E819F81EE81FF819183808306C08B811C
:101DC0009C81EE81FF8191838083EE81FF818981F7
:101DD000838FEE81FF818A81848F8E819F8161E074
:101DE0000E94F10D27960FB6F894DEBF0FBECDBF4F
:101DF000CF91DF911F910F910895DF93CF93CDB7CE
:101E0000DEB72F970FB6F894DEBF0FBECDBF998710
:101E100088877B876A875D874C872E871C828885A9
:101E200099859A8389830FB6F8940F92E981FA8194
:101E3000928DE981FA81838D981718F08E85823012
:101E400011F589819A812A853B85B9014E850E94C9
:101E500053138B83E981FA818189882351F0898129
:101E60009A8141960E945C1D882341F00E94DC0CFF
:101E700005C08B81882311F00E94DC0C0F900FBEEF
:101E800081E08F875CC08C859D85009721F40F9041
:101E90000FBE1F8654C08C81882331F4CE01059675
:101EA0000E94421E81E08C830F900FBE0E948C1A0C
:101EB0000FB6F8940F92E981FA81858D8F3F19F45E
:101EC000E981FA81158EE981FA81868D8F3F19F4B7
:101ED000E981FA81168E0F900FBECE0105969E0104
:101EE000245F3F4FB9010E945B1E882309F5898159
:101EF0009A810E94CF148823A1F089819A81089643
:101F00002C853D85B9010E940A1D89819A810E9414
:101F100040140E94981A882309F085CF0E94DC0C97
:101F200082CF89819A810E9440140E94981A7BCFA7
:101F300089819A810E9440140E94981A1F868F8579
:101F40002F960FB6F894DEBF0FBECDBFCF91DF91B5
:101F50000895DF93CF93CDB7DEB72D970FB6F894E2
:101F6000DEBF0FBECDBF98878F837A8769875C8776
:101F70004B872D878F8198859C838B831D82EB8176
:101F8000FC81928DEB81FC81838D981718F08D85F3
:101F9000823081F5EB81FC81868D8A83EB81FC8127
:101FA000828D89838B819C8129853A85B9014D85F4
:101FB0000E9453138A818F3FA9F4EB81FC818189B0
:101FC0008823A9F08B819C8141960E945C1D882307
:101FD00071F08B859C85009751F0EB85FC8581E045
:101FE000808305C08A818F5FEB81FC81868F81E0D1
:101FF0008E8301C01E828E812D960FB6F894DEBFAF
:102000000FBECDBFCF91DF910895DF93CF93CDB7B2
:10201000DEB72A970FB6F894DEBF0FBECDBF988704
:102020008F837A8769878F8198859C838B831D82B4
:10203000EB81FC81828D8A83EB81FC81938D8A8187
:10204000891748F5EB81FC81868D89838A818F5FB2
:10205000EB81FC81828F89818F3FA9F4EB81FC8128
:1020600081898823A9F08B819C8141960E945C1D07
:10207000882371F089859A85009751F0E985FA8562
:1020800081E0808305C089818F5FEB81FC81868F31
:1020900081E08E8301C01E828E812A960FB6F8944D
:1020A000DEBF0FBECDBFCF91DF910895DF93CF93F9
:1020B000CDB7DEB72E970FB6F894DEBF0FBECDBFFB
:1020C000998788877B876A875D874C871C8288858C
:1020D00099859B838A830FB6F8940F92EA81FB81DE
:1020E000828D898389818823F9F08A819B812A8561
:1020F0003B85B9010E94F91389818150EA81FB81F6
:10210000828FEA81FB818085882349F08A819B81C7
:1021100008960E945C1D882311F00E94DC0C0F9031
:102120000FBE81E08E8763C08C859D85009721F46A
:102130000F900FBE1E865BC08C81882331F4CE01C8
:1021400005960E94421E81E08C830F900FBE0E9474
:102150008C1A0FB6F8940F92EA81FB81858D8F3F20
:1021600019F4EA81FB81158EEA81FB81868D8F3F10
:1021700019F4EA81FB81168E0F900FBECE010596F1
:102180009E01245F3F4FB9010E945B1E882309F521
:102190008A819B810E9493148823A1F08A819B816C
:1021A00041962C853D85B9010E940A1D8A819B813B
:1021B0000E9440140E94981A882309F08CCF0E9434
:1021C000DC0C89CF8A819B810E9440140E94981A5E
:1021D00082CF8A819B810E9440140E94981A8A8132
:1021E0009B810E949314882309F475CF1E868E85E7
:1021F0002E960FB6F894DEBF0FBECDBFCF91DF9104
:102200000895DF93CF93CDB7DEB72C970FB6F89430
:10221000DEBF0FBECDBF998788877B876A871C8208
:10222000888599859B838A830FB6F8940F92EA81FB
:10223000FB81828D898389818823C1F089818150C6
:10224000EA81FB81828FEA81FB818085882349F0C6
:102250008A819B8108960E945C1D882311F00E9450
:10226000DC0C0F900FBE81E08C8763C08A859B8554
:10227000009721F40F900FBE1C865BC08C818823D1
:1022800031F4CE0105960E94421E81E08C830F90AE
:102290000FBE0E948C1A0FB6F8940F92EA81FB8150
:1022A000858D8F3F19F4EA81FB81158EEA81FB81D0
:1022B000868D8F3F19F4EA81FB81168E0F900FBE39
:1022C000CE0105969E01265F3F4FB9010E945B1E1D
:1022D000882309F58A819B810E9493148823A1F0A9
:1022E0008A819B8141962A853B85B9010E940A1DFE
:1022F0008A819B810E9440140E94981A882309F0C9
:1023000093CF0E94DC0C90CF8A819B810E94401465
:102310000E94981A89CF8A819B810E9440140E9452
:10232000981A8A819B810E949314882309F47CCF98
:102330001C868C852C960FB6F894DEBF0FBECDBFE1
:10234000CF91DF910895DF93CF93CDB7DEB760973C
:102350000FB6F894DEBF0FBECDBF9B878A877D87FF
:102360006C875F874E871E828A859B859B838A83C5
:102370000FB6F8940F92EA81FB81828D898389815F
:10238000882331F1EA81FB81868197819D838C834B
:102390008A819B812C853D85B9010E94F913EA81D0
:1023A000FB818C819D8197838683EA81FB81818972
:1023B000882349F08A819B8141960E945C1D882375
:1023C00011F00E94DC0C0F900FBE81E0888B63C07F
:1023D0008E859F85009721F40F900FBE188A5BC0F1
:1023E0008E81882331F4CE0107960E94421E81E03F
:1023F0008E830F900FBE0E948C1A0FB6F8940F9226
:10240000EA81FB81858D8F3F19F4EA81FB81158E6E
:10241000EA81FB81868D8F3F19F4EA81FB81168E5C
:102420000F900FBECE0107969E01225F3F4FB9016C
:102430000E945B1E882309F58A819B810E94931468
:102440008823A1F08A819B8141962E853F85B90121
:102450000E940A1D8A819B810E9440140E94981A42
:10246000882309F085CF0E94DC0C82CF8A819B8172
:102470000E9440140E94981A7BCF8A819B810E94FF
:1024800040140E94981A8A819B810E949314882389
:1024900009F46ECF188A888960960FB6F894DEBF6B
:1024A0000FBECDBFCF91DF910895DF93CF93CDB70E
:1024B000DEB72C970FB6F894DEBF0FBECDBF98875E
:1024C0008F837A8769875C874B878F8198859C8308
:1024D0008B831D82EB81FC81828D8A838A81882394
:1024E00081F1EB81FC81858D89838B819C8129859C
:1024F0003A85B9010E94F9138A818150EB81FC81F0
:10250000828F89818F3FA9F4EB81FC8180858823AC
:10251000A9F08B819C8108960E945C1D882371F034
:102520008B859C85009751F0EB85FC8581E080834D
:1025300005C089818F5FEB81FC81858F81E08E836F
:1025400001C01E828E812C960FB6F894DEBF0FBE9E
:10255000CDBFCF91DF910895DF93CF93CDB7DEB795
:102560002A970FB6F894DEBF0FBECDBF98878F8332
:102570007A8769878F8198859A8389831D82E9810B
:10258000FA81828D8823B1F0E981FA818681978171
:102590009C838B8389819A8129853A85B9010E9420
:1025A000F913E981FA818B819C819783868381E08D
:1025B0008E8301C01E828E812A960FB6F894DEBFEC
:1025C0000FBECDBFCF91DF910895DF93CF9300D0A1
:1025D0000F92CDB7DEB79B838A830FB6F8940F9224
:1025E000EA81FB81828D89830F900FBE89810F90D4
:1025F0000F900F90CF91DF910895DF93CF9300D08C
:1026000000D00F92CDB7DEB79D838C838C819D81E6
:102610009A8389830FB6F8940F92E981FA81938D9A
:10262000E981FA81828D292F281B822F8B830F90BD
:102630000FBE8B810F900F900F900F900F90CF9146
:10264000DF910895DF93CF9300D000D00F92CDB7E4
:10265000DEB79D838C838C819D819A838983E981F8
:10266000FA81828D8B838B810F900F900F900F904A
:102670000F90CF91DF910895DF93CF9300D000D0DA
:10268000CDB7DEB79C838B838B819C819A838983B2
:1026900089819A810E94C1090F900F900F900F902D
:1026A000CF91DF910895DF93CF93CDB7DEB7279712
:1026B0000FB6F894DEBF0FBECDBF9C838B837E83A5
:1026C0006D834F831A82EB81FC81828D8983EB813C
:1026D000FC81848D882309F47DC08F81882399F53E
:1026E000EB81FC8162817381EB81FC81848D482FB9
:1026F00050E02D813E81CB01B9010E94742FEB8106
:10270000FC8122813381EB81FC81848D882F90E0D4
:10271000820F931FEB81FC8193838283EB81FC8189
:1027200022813381EB81FC818481958128173907CF
:1027300008F450C0EB81FC8180819181EB81FC81A8
:102740009383828347C0EB81FC8166817781EB8133
:10275000FC81848D482F50E02D813E81CB01B90151
:102760000E94742FEB81FC8126813781EB81FC81F3
:10277000848D882F90E0909581959F4F820F931FB5
:10278000EB81FC8197838683EB81FC8126813781F5
:10279000EB81FC81808191812817390790F4EB81CE
:1027A000FC8124813581EB81FC81848D882F90E030
:1027B000909581959F4F820F931FEB81FC819783AA
:1027C00086838F81823031F48981882319F0898151
:1027D0008150898389818F5FEB81FC81828F8A811F
:1027E00027960FB6F894DEBF0FBECDBFCF91DF9115
:1027F0000895DF93CF9300D000D0CDB7DEB79A8392
:1028000089837C836B83E981FA81848D882389F1B4
:10281000E981FA8126813781E981FA81848D882FC7
:1028200090E0820F931FE981FA8197838683E98183
:10283000FA8126813781E981FA818481958128177F
:10284000390740F0E981FA8180819181E981FA813B
:1028500097838683E981FA8146815781E981FA81EC
:10286000848D282F30E08B819C81BA01A9010E94C0
:10287000742F0F900F900F900F90CF91DF910895CC
:10288000DF93CF9300D000D0CDB7DEB79C838B838E
:102890000FB6F8940F92EB81FC81868D8A8311C06C
:1028A000EB81FC818189882379F08B819C81419621
:1028B0000E945C1D882311F00E94C81E8A818150ED
:1028C0008A838A81181664F3EB81FC818FEF868FEF
:1028D0000F900FBE0FB6F8940F92EB81FC81858D9F
:1028E000898311C0EB81FC818085882379F08B81FD
:1028F0009C8108960E945C1D882311F00E94C81ECE
:102900008981815089838981181664F3EB81FC8168
:102910008FEF858F0F900FBE0F900F900F900F903D
:10292000CF91DF910895DF93CF9300D00F92CDB771
:10293000DEB79B838A830FB6F8940F92EA81FB81FE
:10294000828D882319F481E0898301C019820F9058
:102950000FBE89810F900F900F90CF91DF91089556
:10296000DF93CF9300D000D00F92CDB7DEB79D8319
:102970008C838C819D819A838983E981FA81828D00
:10298000882319F481E08B8301C01B828B810F9017
:102990000F900F900F900F90CF91DF910895DF93DC
:1029A000CF9300D00F92CDB7DEB79B838A830FB64B
:1029B000F8940F92EA81FB81928DEA81FB81838DED
:1029C000981719F481E0898301C019820F900FBE16
:1029D00089810F900F900F90CF91DF910895DF9331
:1029E000CF9300D000D00F92CDB7DEB79D838C83FC
:1029F0008C819D819A838983E981FA81928DE98115
:102A0000FA81838D981719F481E08B8301C01B82B2
:102A10008B810F900F900F900F900F90CF91DF91BF
:102A200008958F929F92AF92BF92CF92DF92EF92D2
:102A3000FF920F931F93DF93CF93CDB7DEB76097CD
:102A40000FB6F894DEBF0FBECDBF9F838E8379870C
:102A500068875B874A873D872C870E87F88AEF86D1
:102A60008A859B850E946B099A83898389819A81D3
:102A70000097B1F086E290E00E946B099D838C8301
:102A80008C819D81009739F0EC81FD8189819A814B
:102A9000908F878B07C089819A810E94C10902C0EB
:102AA0001D821C828C819D810097E9F08A859B851F
:102AB0009C0140E050E08E819F8168857985EC859E
:102AC000FD85AF85B889AC80BD808F01EE846D0136
:102AD000882499240E9489158C819D810E94451625
:102AE00081E08B8302C08FEF8B838B8160960FB662
:102AF000F894DEBF0FBECDBFCF91DF911F910F9134
:102B0000FF90EF90DF90CF90BF90AF909F908F900D
:102B100008958F929F92AF92BF92CF92DF92EF92E1
:102B20000F931F93DF93CF93CDB7DEB764970FB6A4
:102B3000F894DEBF0FBECDBF9D838C837F836E83F1
:102B4000288739874A875B871D870C87EE86D88A56
:102B5000CF86BA8AA98A9C8A8B8AE989FA892789C9
:102B6000308D888599850197820F931F9B838A8377
:102B70008E819F81009751F1198221C08981482F50
:102B800050E08981282F30E08E819F81FC01E20F87
:102B9000F31F208189899A89840F951FFC017996FA
:102BA00020838981282F30E08E819F81FC01E20FF4
:102BB000F31F8081882331F089818F5F8983898128
:102BC0008830E0F2E989FA8910A203C0E989FA891C
:102BD000118E8E85853010F084E08E87E989FA8920
:102BE0008E85868B89899A8902960E94110A898925
:102BF0009A890C960E94110AE989FA8989899A8929
:102C0000918780878E85282F30E085E090E0821BB9
:102C1000930BE989FA8995878487E989FA898989F3
:102C20009A89938B828BE989FA8911A212A213A245
:102C300014A2E989FA8915A28A819B812C813D81A0
:102C40004C855D85B9010E941D0BE989FA89918344
:102C500080838F859889009731F0EF85F88989897D
:102C60009A899183808364960FB6F894DEBF0FBE75
:102C7000CDBFCF91DF911F910F91EF90DF90CF905B
:102C8000BF90AF909F908F900895DF93CF9300D027
:102C9000CDB7DEB79A8389830FB6F8940F928091EF
:102CA0006F048F5F80936F0480916C0490916D042A
:102CB000009769F489819A8190936D0480936C04E4
:102CC00080916F048130B9F40E94DC1E14C08091A1
:102CD0007304882381F4E0916C04F0916D0496896B
:102CE000E981FA818689891730F089819A819093E8
:102CF0006D0480936C04809178048F5F80937804D6
:102D0000E981FA81968980917204891728F4E98112
:102D1000FA81868980937204E981FA818689282F55
:102D200030E0C901880F991F880F991F880F991FDC
:102D3000820F931FAC0142585B4F89819A819C019D
:102D40002E5F3F4FCA01B9010E94210A0F900FBEAA
:102D500080917304882361F0E0916C04F0916D041C
:102D60009689E981FA818689981710F40E94DC0C13
:102D70000F900F90CF91DF910895DF93CF9300D004
:102D800000D000D0CDB7DEB79C838B830FB6F8940C
:102D90000F928B819C81009739F480916C04909103
:102DA0006D049E838D8304C08B819C819E838D8363
:102DB0008D819E819A83898389819A8102960E945E
:102DC000D10AE981FA8184899589009729F089815E
:102DD0009A810C960E94D10A809178048F5F80932B
:102DE000780420916C0430916D0489819A81821756
:102DF000930781F489819A819C012E5F3F4F8AEC71
:102E000094E0B9010E94210A80916E048F5F809343
:102E10006E040BC080916F04815080936F04898190
:102E20009A810E944C1F0E94621F0F900FBE8091DA
:102E30007304882359F020916C0430916D048981CA
:102E40009A818217930711F40E94DC0C26960FB624
:102E5000F894DEBF0FBECDBFCF91DF910895DF9311
:102E6000CF93CDB7DEB72A970FB6F894DEBF0FBE6B
:102E7000CDBF98878F837A8769871B820E948C1ABF
:102E800080917004909171049A838983EF81F88511
:102E90002081318189859A85820F931F9E838D833E
:102EA000EF81F8852081318189819A81821793078A
:102EB00098F4EF81F885208131818D819E81821780
:102EC0009307E0F42D813E8189819A8182179307CF
:102ED000A8F481E08B8312C0EF81F88520813181D5
:102EE0008D819E818217930738F02D813E818981E3
:102EF0009A818217930710F481E08B83EF81F88524
:102F00008D819E81918380838B81882349F08D817F
:102F10009E8129813A81821B930B60E00E94B72336
:102F20000E94981A8C838C81882311F40E94DC0CF7
:102F30002A960FB6F894DEBF0FBECDBFCF91DF91BA
:102F40000895DF93CF9300D00F92CDB7DEB79B8368
:102F50008A8319828A819B81009751F00E948C1A82
:102F60008A819B8160E00E94B7230E94981A89831E
:102F70008981882311F40E94DC0C0F900F900F9030
:102F8000CF91DF910895DF93CF93CDB7DEB7279729
:102F90000FB6F894DEBF0FBECDBF9D838C830FB6F6
:102FA000F8940F928C819D81009739F480916C0484
:102FB00090916D049F838E8304C08C819D819F833B
:102FC0008E838E819F819B838A83EA81FB818689A0
:102FD00089830F900FBE898127960FB6F894DEBFC4
:102FE0000FBECDBFCF91DF910895DF93CF93CDB7C3
:102FF000DEB728970FB6F894DEBF0FBECDBF9E8315
:103000008D8319828D819E81009739F480916C04A3
:1030100090916D0498878F8304C08D819E819887DD
:103020008F838F8198859C838B83EB81FC8186893C
:103030008A838A8128960FB6F894DEBF0FBECDBF73
:10304000CF91DF910895DF93CF93CDB7DEB72A9765
:103050000FB6F894DEBF0FBECDBF9F838E83688707
:1030600019828885853010F084E088870FB6F8943F
:103070000F928E819F81009739F480916C0490911A
:103080006D049A87898704C08E819F819A8789877A
:1030900089859A859D838C83EC81FD8186898B83CC
:1030A0009B818885981709F481C098858B81891741
:1030B000A0F420916C0430916D048C819D81821765
:1030C0009307B1F0E0916C04F0916D0496898885C6
:1030D000891770F081E089830BC020916C043091D6
:1030E0006D048C819D818217930711F481E089839F
:1030F000EC81FD8186898A83EC81FD818885868BC0
:10310000EC81FD818485958599235CF08885282F45
:1031100030E085E090E0821B930BEC81FD81958788
:103120008487EC81FD81428553858A81282F30E098
:10313000C901880F991F880F991F880F991F820F47
:10314000931F82589B4F4817590759F58C819D81D1
:1031500002960E94D10AEC81FD81968980917204C9
:10316000891728F4EC81FD81868980937204EC81B3
:10317000FD818689282F30E0C901880F991F880FAB
:10318000991F880F991F820F931FAC0142585B4F04
:103190008C819D819C012E5F3F4FCA01B9010E9425
:1031A000210A8981882311F00E94DC0C0F900FBE48
:1031B0002A960FB6F894DEBF0FBECDBFCF91DF9138
:1031C0000895DF93CF9300D000D000D0CDB7DEB705
:1031D0009C838B830FB6F8940F928B819C81009710
:1031E00039F480916C0490916D049E838D8304C0AA
:1031F0008B819C819E838D838D819E819A8389831F
:1032000089819A8102960E94D10AE981FA81848992
:103210009589009729F089819A810C960E94D10A9C
:1032200089819A819C012E5F3F4F83ED94E0B90123
:103230000E94210AE981FA8185A1813019F4E9818E
:10324000FA8115A20F900FBE80917304882339F084
:103250000FB6F8940F920E94621F0F900FBE20913C
:103260006C0430916D0489819A8182179307A1F4CF
:1032700080917304882319F00E94DC0C0DC090919A
:10328000D30480916F04981729F410926D04109262
:103290006C0402C00E949D1C26960FB6F894DEBFF7
:1032A0000FBECDBFCF91DF910895DF93CF9300D0B4
:1032B00000D00F92CDB7DEB79D838C831B828C81AB
:1032C0009D819A838983E981FA818285938524E0AF
:1032D000833D920781F4E981FA818489958924E00C
:1032E000813C920741F0E981FA81848995890097B0
:1032F00011F481E08B838B810F900F900F900F90D2
:103300000F90CF91DF910895DF93CF9300D000D03D
:10331000CDB7DEB79C838B838B819C819A83898315
:1033200020916C0430916D0489819A8182179307F2
:1033300009F447C089819A81009709F442C00FB609
:10334000F8940F9289819A810E9455198823B9F1C6
:1033500089819A8102960E94D10AE981FA8196892F
:1033600080917204891728F4E981FA818689809313
:103370007204E981FA818689282F30E0C901880F1B
:10338000991F880F991F880F991F820F931FAC01F7
:1033900042585B4F89819A819C012E5F3F4FCA0141
:1033A000B9010E94210AE981FA819689E0916C04B1
:1033B000F0916D048689981710F00E94DC0C0F9034
:1033C0000FBE0F900F900F900F90CF91DF91089547
:1033D000DF93CF9300D000D000D0CDB7DEB79E836F
:1033E0008D831C828D819E819B838A8319828A8131
:1033F0009B810E945519882309F446C080917D0461
:103400008823C1F5EA81FB819689E0916C04F091F3
:103410006D048689981710F081E08C838A819B81E6
:1034200002960E94D10AEA81FB81968980917204FA
:10343000891728F4EA81FB81868980937204EA81E6
:10344000FB818689282F30E0C901880F991F880FDA
:10345000991F880F991F820F931FAC0142585B4F31
:103460008A819B819C012E5F3F4FCA01B9010E9456
:10347000210A0AC08A819B819C01245F3F4F81EC15
:1034800094E0B9010E94210A8C8126960FB6F89427
:10349000DEBF0FBECDBFCF91DF910895EF92FF92B7
:1034A0000F93DF93CF930F92CDB7DEB782ED9EE1FE
:1034B00022E730E0EBE7F4E0B9014AEF50E020E02A
:1034C00030E000E07F010E941115898389818130FD
:1034D00081F4F8948FEF9FEF90937A0480937904AE
:1034E00081E08093730410927104109270040E9422
:1034F000A00C0F90CF91DF910F91FF90EF90089566
:10350000DF93CF93CDB7DEB7F894109273040E9487
:10351000D50CCF91DF910895DF93CF93CDB7DEB770
:1035200080917D048F5F80937D04CF91DF9108951A
:10353000DF93CF9300D000D00F92CDB7DEB71D82BE
:103540001C821B820FB6F8940F9280917D048150EB
:1035500080937D0480917D04882309F07CC0809154
:103560006F04882309F477C045C0E091C604F09148
:10357000C704868197819D838C838C819D810C9665
:103580000E94D10A8C819D8102960E94D10AEC8111
:10359000FD81968980917204891728F4EC81FD8160
:1035A000868980937204EC81FD818689282F30E022
:1035B000C901880F991F880F991F880F991F820FC3
:1035C000931FAC0142585B4F8C819D819C012E5F03
:1035D0003F4FCA01B9010E94210AEC81FD81968901
:1035E000E0916C04F0916D048689981718F081E0E1
:1035F000809376048091C104882309F0B6CF8C8132
:103600009D81009711F00E94621F80917404909137
:1036100075049A83898389819A810097A1F00E9419
:10362000B41B882319F081E08093760489819A8104
:1036300001979A83898389819A81009781F71092F3
:1036400075041092740480917604882321F081E03F
:103650008B830E94DC0C0F900FBE8B810F900F901C
:103660000F900F900F90CF91DF910895DF93CF933C
:1036700000D0CDB7DEB70FB6F8940F9280917004EA
:10368000909171049A8389830F900FBE89819A81EA
:103690000F900F90CF91DF910895DF93CF9300D0DB
:1036A0000F92CDB7DEB719828091700490917104AA
:1036B0009B838A838A819B810F900F900F90CF917B
:1036C000DF910895DF93CF93CDB7DEB780916F047C
:1036D000CF91DF910895DF93CF9300D000D000D039
:1036E000CDB7DEB79C838B838B819C81009739F4A7
:1036F00080916C0490916D049E838D8304C08B81B6
:103700009C819E838D838D819E819A83898389810B
:103710009A81499626960FB6F894DEBF0FBECDBFAC
:10372000CF91DF910895DF93CF9300D00F92CDB763
:10373000DEB79B838A8319820E948C1A20917404BD
:10374000309175048A819B81820F931F9093750439
:10375000809374040E94981A898389810F900F9036
:103760000F90CF91DF910895DF93CF93CDB7DEB760
:1037700029970FB6F894DEBF0FBECDBF1D82809192
:103780007D04882309F0C6C0809170049091710473
:1037900001969C838B838B819C8190937104809391
:1037A00070048B819C810097D9F48091BD04909125
:1037B000BE049A8389838091BF049091C004909342
:1037C000BE048093BD0489819A819093C004809344
:1037D000BF04809177048F5F809377040E94621FFB
:1037E0002091790430917A048B819C818217930710
:1037F00008F471C0E091BD04F091BE04808188237B
:1038000039F48FEF9FEF90937A048093790463C02B
:10381000E091BD04F091BE040580F681E02D868123
:10382000978199878887E885F985828193819F832D
:103830008E832B813C818E819F812817390738F434
:103840008E819F8190937A048093790444C0888507
:10385000998502960E94D10AE885F985848995891F
:10386000009729F0888599850C960E94D10AE885F1
:10387000F985968980917204891728F4E885F9857D
:10388000868980937204E885F9858689282F30E03F
:10389000C901880F991F880F991F880F991F820FE0
:1038A000931FAC0142585B4F888599859C012E5F20
:1038B0003F4FCA01B9010E94210AE885F98596891E
:1038C000E0916C04F0916D048689981708F492CF0A
:1038D00081E08D838FCFE0916C04F0916D04868937
:1038E000282F30E0C901880F991F880F991F880F72
:1038F000991F820F931FFC01E258FB4F8081823099
:1039000010F081E08D8380917604882361F081E05E
:103910008D8309C0809174049091750401969093F1
:103920007504809374048D8129960FB6F894DEBFD8
:103930000FBECDBFCF91DF910895DF93CF9300D01D
:103940000F92CDB7DEB780917D04882321F081E00E
:103950008093760459C010927604809172048B8310
:1039600003C08B8181508B838B81282F30E0C9016C
:10397000880F991F880F991F880F991F820F931F17
:10398000FC01E258FB4F8081882359F38B81282F5B
:1039900030E0C901880F991F880F991F880F991F60
:1039A000820F931F82589B4F9A838983E981FA8102
:1039B0000180F281E02D82819381E981FA819283F5
:1039C0008183E981FA812181328189819A810396FB
:1039D0002817390759F4E981FA810180F281E02D35
:1039E00082819381E981FA8192838183E981FA81DD
:1039F0000180F281E02D8681978190936D04809300
:103A00006C048B81809372040F900F900F90CF9174
:103A1000DF910895DF93CF9300D000D0CDB7DEB70C
:103A20009A8389837C836B8380916C0490916D046D
:103A30009C01245F3F4F89819A81B9010E94650AE8
:103A40008B819C8161E00E94B7230F900F900F90B3
:103A50000F90CF91DF910895DF93CF9300D000D0E6
:103A600000D0CDB7DEB79A8389837C836B835E8376
:103A70004D83E0916C04F0916D048B819C81906882
:103A80009587848780916C0490916D049C01245FDC
:103A90003F4F89819A81B9010E94210A8D819E81BF
:103AA00061E00E94B72326960FB6F894DEBF0FBEE2
:103AB000CDBFCF91DF910895DF93CF9300D000D099
:103AC0000F92CDB7DEB79D838C83EC81FD8105809D
:103AD000F681E02D868197819B838A838A819B81F1
:103AE0000C960E94D10A80917D04882361F58A8119
:103AF0009B8102960E94D10AEA81FB81968980917E
:103B00007204891728F4EA81FB8186898093720404
:103B1000EA81FB818689282F30E0C901880F991F2F
:103B2000880F991F880F991F820F931FAC0142586D
:103B30005B4F8A819B819C012E5F3F4FCA01B90177
:103B40000E94210A0AC08A819B819C01245F3F4F09
:103B500081EC94E0B9010E94210AEA81FB819689F7
:103B6000E0916C04F0916D048689891730F481E04E
:103B7000898381E08093760401C0198289810F9046
:103B80000F900F900F900F90CF91DF910895DF93DA
:103B9000CF9300D000D000D0CDB7DEB79C838B830D
:103BA0007E836D838D819E819068EB81FC81918302
:103BB0008083EB81FC81868197819A8389838B81C5
:103BC0009C810E94D10A89819A8102960E94D10A21
:103BD000E981FA81968980917204891728F4E98134
:103BE000FA81868980937204E981FA818689282F77
:103BF00030E0C901880F991F880F991F880F991FFE
:103C0000820F931FAC0142585B4F89819A819C01BE
:103C10002E5F3F4FCA01B9010E94210AE981FA8152
:103C20009689E0916C04F0916D048689891718F4E7
:103C300081E08093760426960FB6F894DEBF0FBE1F
:103C4000CDBFCF91DF910895DF93CF9300D0CDB753
:103C5000DEB79A8389830FB6F8940F928091770428
:103C6000E981FA8180838091700490917104E981E7
:103C7000FA81928381830F900FBE0F900F90CF91A6
:103C8000DF910895DF93CF9300D0CDB7DEB79A834D
:103C9000898380917704E981FA818083809170041F
:103CA00090917104E981FA81928381830F900F9042
:103CB000CF91DF910895DF93CF93CDB7DEB72997EA
:103CC0000FB6F894DEBF0FBECDBF9F838E8379877A
:103CD00068870FB6F8940F928091700490917104E8
:103CE0009C838B83EE81FF81218132818B819C813A
:103CF000821B930B9A838983E885F9858081918162
:103D00002FEF8F3F920711F41D8236C0EE81FF81A5
:103D1000908180917704981761F0EE81FF81218175
:103D200032818B819C818217930718F081E08D830B
:103D300023C0E885F9852081318189819A818217A4
:103D40009307A0F4E885F9852081318189819A81E2
:103D5000A901481B590BCA01E885F9859183808325
:103D60008E819F810E94421E1D8206C0E885F985D2
:103D70001182108281E08D830F900FBE8D81299674
:103D80000FB6F894DEBF0FBECDBFCF91DF9108957F
:103D9000DF93CF93CDB7DEB781E080937604CF91E8
:103DA000DF910895DF93CF9300D0CDB7DEB79A832C
:103DB00089830E941D1FFDCFDF93CF930F92CDB754
:103DC000DEB7198213C08981282F30E0C901880F1E
:103DD000991F880F991F880F991F820F931F825870
:103DE0009B4F0E94E70989818F5F89838981853094
:103DF00050F38BEA94E00E94E70984EB94E00E9480
:103E0000E70981EC94E00E94E7098AEC94E00E94C3
:103E1000E70983ED94E00E94E7098BEA94E0909330
:103E2000BE048093BD0484EB94E09093C00480931F
:103E3000BF040F90CF91DF910895DF93CF9300D00F
:103E4000CDB7DEB720C00FB6F8940F92E091CF0443
:103E5000F091D004868197819A83898389819A81A0
:103E600002960E94D10A80916F04815080936F0462
:103E700080916E04815080936E040F900FBE8981F3
:103E80009A810E944C1F80916E048823E1F60F9066
:103E90000F90CF91DF910895DF93CF9300D0CDB7EE
:103EA000DEB79A838983E981FA818789908D0E94A0
:103EB000C10989819A810E94C1090F900F90CF9109
:103EC000DF910895DF93CF9300D0CDB7DEB7E091B7
:103ED000BD04F091BE048081882339F48FEF9FEFF9
:103EE00090937A048093790413C0E091BD04F0911B
:103EF000BE040580F681E02D868197819A838983AF
:103F0000E981FA818281938190937A048093790484
:103F10000F900F90CF91DF910895DF93CF9300D052
:103F2000CDB7DEB7E0916C04F0916D048485958582
:103F30009A838983A0916C04B0916D04E0916C0424
:103F4000F0916D048689282F30E085E090E0821B97
:103F5000930B1D969C938E931C9789819A810F9049
:103F60000F90CF91DF910895DF93CF93CDB7DEB758
:103F700027970FB6F894DEBF0FBECDBF8D837F832A
:103F80006E830FB6F8940F92E0916C04F0916D047B
:103F900081A192A1A3A1B4A10097A105B10589F4C3
:103FA000E0916C04F0916D0481E085A38E819F8186
:103FB000009739F08E819F8161E00E94B7230E94B3
:103FC000DC0C0F900FBE0FB6F8940F92E0916C04CA
:103FD000F0916D0481A192A1A3A1B4A189839A83D8
:103FE000AB83BC8389819A81AB81BC810097A10599
:103FF000B105D9F08D81882349F0E0916C04F091EE
:104000006D0411A212A213A214A20FC0E0916C04BD
:10401000F0916D0489819A81AB81BC810197A109DE
:10402000B10981A392A3A3A3B4A3E0916C04F0917E
:104030006D0415A20F900FBE89819A81AB81BC815E
:10404000BC01CD0127960FB6F894DEBF0FBECDBFE1
:10405000CF91DF910895EF92FF920F931F93DF931B
:10406000CF93CDB7DEB72D970FB6F894DEBF0FBE56
:10407000CDBF6A837B838C839D832E833F83488758
:1040800059871B870A87FD86EC860FB6F8940F9236
:10409000E0916C04F0916D0485A1823049F1E091CA
:1040A0006C04F0916D0421A132A143A154A18A8135
:1040B0009B81AC81BD8180959095A095B095822320
:1040C0009323A423B52381A392A3A3A3B4A3E09134
:1040D0006C04F0916D0481E085A38C859D8500972B
:1040E00039F08C859D8561E00E94B7230E94DC0C2D
:1040F0000F900FBE0FB6F8940F928A859B8500979C
:1041000071F0E0916C04F0916D0481A192A1A3A1E2
:10411000B4A1EA85FB8580839183A283B383E09178
:104120006C04F0916D0485A1823011F019821AC0DF
:10413000E0916C04F0916D0421A132A143A154A13E
:104140008E819F81A885B98580959095A095B09521
:1041500082239323A423B52381A392A3A3A3B4A36F
:1041600081E08983E0916C04F0916D0415A20F90B9
:104170000FBE89812D960FB6F894DEBF0FBECDBF5E
:10418000CF91DF911F910F91FF90EF9008950F93C2
:104190001F93DF93CF93CDB7DEB72F970FB6F89469
:1041A000DEBF0FBECDBF9E838D834F835887698747
:1041B0007A872B871D870C8781E08A838D819E817A
:1041C0009C838B830FB6F8940F928C859D85009706
:1041D00061F0EB81FC8181A192A1A3A1B4A1EC8546
:1041E000FD8580839183A283B383EB81FC8185A1CC
:1041F0008983EB81FC8182E085A38B85282F30E0C9
:104200003F872E878E859F858230910559F12E85B7
:104210003F852330310534F48E859F8581309105AB
:1042200061F04AC02E853F852330310559F18E85D6
:104230009F858430910589F13FC0EB81FC8121A1EC
:1042400032A143A154A18F819885A985BA85822B7B
:10425000932BA42BB52BEB81FC8181A392A3A3A369
:10426000B4A32AC0EB81FC8181A192A1A3A1B4A136
:104270000196A11DB11DEB81FC8181A392A3A3A393
:10428000B4A31AC0EB81FC818F819885A985BA857A
:1042900081A392A3A3A3B4A30FC08981823059F054
:1042A000EB81FC818F819885A985BA8581A392A332
:1042B000A3A3B4A301C01A8289818130B9F58B818F
:1042C0009C8102960E94D10AEB81FC8196898091A3
:1042D0007204891728F4EB81FC818689809372042B
:1042E000EB81FC818689282F30E0C901880F991F56
:1042F000880F991F880F991F820F931FAC01425896
:104300005B4F8B819C819C012E5F3F4FCA01B9019D
:104310000E94210AEB81FC819689E0916C04F09166
:104320006D048689891710F40E94DC0C0F900FBE73
:104330008A812F960FB6F894DEBF0FBECDBFCF9106
:10434000DF911F910F910895EF92FF920F931F93AA
:10435000DF93CF93CDB7DEB762970FB6F894DEBF89
:104360000FBECDBF9F838E83488759876A877B871F
:104370002C871E870D87F88AEF8681E08A838E81DD
:104380009F819D838C8319828D859E85009761F026
:10439000EC81FD8181A192A1A3A1B4A1ED85FE854F
:1043A00080839183A283B383EC81FD8185A18B837C
:1043B000EC81FD8182E085A38C85282F30E03A8B4B
:1043C000298B89899A898230910559F129893A89FD
:1043D0002330310534F489899A898130910561F05F
:1043E0004AC029893A892330310559F189899A8946
:1043F0008430910589F13FC0EC81FD8121A132A17A
:1044000043A154A188859985AA85BB85822B932BCE
:10441000A42BB52BEC81FD8181A392A3A3A3B4A30C
:104420002AC0EC81FD8181A192A1A3A1B4A1019632
:10443000A11DB11DEC81FD8181A392A3A3A3B4A30F
:104440001AC0EC81FD8188859985AA85BB8581A3E9
:1044500092A3A3A3B4A30FC08B81823059F0EC8147
:10446000FD8188859985AA85BB8581A392A3A3A395
:10447000B4A301C01A828B81813009F04FC08091B2
:104480007D04882361F58C819D8102960E94D10A6A
:10449000EC81FD81968980917204891728F4EC8162
:1044A000FD81868980937204EC81FD818689282FA5
:1044B00030E0C901880F991F880F991F880F991F35
:1044C000820F931FAC0142585B4F8C819D819C01F0
:1044D0002E5F3F4FCA01B9010E94210A0AC08C8198
:1044E0009D819C01245F3F4F81EC94E0B9010E94C3
:1044F000210AEC81FD819689E0916C04F0916D04B4
:104500008689891758F48F859889009721F0EF855F
:10451000F88981E0808381E0809376048A816296C5
:104520000FB6F894DEBF0FBECDBFCF91DF911F91C4
:104530000F91FF90EF900895DF93CF93CDB7DEB743
:1045400028970FB6F894DEBF0FBECDBF9E838D8334
:1045500078876F838D819E819C838B831982EB8109
:10456000FC8185A18A83EB81FC8182E085A3EB81BC
:10457000FC8181A192A1A3A1B4A10196A11DB11DAD
:10458000EB81FC8181A392A3A3A3B4A38A81813090
:1045900009F04FC080917D04882361F58B819C8157
:1045A00002960E94D10AEB81FC8196898091720467
:1045B000891728F4EB81FC81868980937204EB8152
:1045C000FC818689282F30E0C901880F991F880F48
:1045D000991F880F991F820F931FAC0142585B4FA0
:1045E0008B819C819C012E5F3F4FCA01B9010E94C3
:1045F000210A0AC08B819C819C01245F3F4F81EC82
:1046000094E0B9010E94210AEB81FC819689E09136
:104610006C04F0916D048689891758F48F81988510
:10462000009721F0EF81F88581E0808381E080931D
:10463000760428960FB6F894DEBF0FBECDBFCF919B
:10464000DF910895DF93CF93CDB7DEB727970FB6ED
:10465000F894DEBF0FBECDBF9D838C838C819D817E
:10466000009739F480916C0490916D049F838E8340
:1046700004C08C819D819F838E838E819F819B83CB
:104680008A830FB6F8940F92EA81FB8185A182306C
:1046900031F4EA81FB8115A281E0898301C019828E
:1046A0000F900FBE898127960FB6F894DEBF0FBE1C
:1046B000CDBFCF91DF910895DF93CF93CDB7DEB714
:1046C0002E970FB6F894DEBF0FBECDBF98878F83AD
:1046D00049875A876B877C878F819885009739F443
:1046E00080916C0490916D049E878D8704C08F81AA
:1046F00098859E878D878D859E859E838D830FB639
:10470000F8940F92E0916C04F0916D0481A192A154
:10471000A3A1B4A189839A83AB83BC83ED81FE817D
:1047200021A132A143A154A189859A85AB85BC857D
:1047300080959095A095B09582239323A423B523CB
:10474000ED81FE8181A392A3A3A3B4A30F900FBE1A
:1047500089819A81AB81BC81BC01CD012E960FB6B7
:10476000F894DEBF0FBECDBFCF91DF910895DF93E8
:10477000CF93CDB7DEB727970FB6F894DEBF0FBE45
:10478000CDBF9E838D836F8380917004909171045F
:104790009A83898380916C0490916D0402960E94A3
:1047A000D10A8D819E812FEF8F3F920781F48F81F7
:1047B000882369F080916C0490916D049C012E5FB8
:1047C0003F4F83ED94E0B9010E94210A43C0298143
:1047D0003A818D819E81820F931F9C838B83E09110
:1047E0006C04F0916D048B819C81938382832B8177
:1047F0003C8189819A812817390770F48091BF0420
:104800009091C00420916C0430916D042E5F3F4F55
:10481000B9010E94650A1EC04091BD045091BE04BA
:1048200080916C0490916D049C012E5F3F4FCA01F2
:10483000B9010E94650A2091790430917A048B8134
:104840009C818217930730F48B819C8190937A042A
:104850008093790427960FB6F894DEBF0FBECDBFC4
:10486000CF91DF910895DF93CF93CDB7DEB7AFE55A
:10487000B0E0EFE5F0E0808180688C93CF91DF912C
:104880000895DF93CF93CDB7DEB7AFE5B0E0EFE5A6
:10489000F0E080818F778C93CF91DF910895DF9343
:1048A000CF9300D000D0CDB7DEB789836A838981EA
:1048B000282F30E03C832B838B819C8181309105B4
:1048C00001F12B813C812230310589F18B819C8162
:1048D000009709F041C08A81813041F4ABE5B0E036
:1048E000EBE5F0E0808180648C9336C08A81882378
:1048F00099F5ABE5B0E0EBE5F0E080818F7B8C9340
:104900002BC08A81813041F4ABE5B0E0EBE5F0E00B
:10491000808180688C9320C08A818823E9F4ABE58C
:10492000B0E0EBE5F0E080818F778C9315C08A8151
:10493000813041F4ABE5B0E0EBE5F0E080818062EE
:104940008C930AC08A81882339F4ABE5B0E0EBE5AB
:10495000F0E080818F7D8C930F900F900F900F90DF
:10496000CF91DF910895DF93CF93CDB7DEB72A972C
:104970000FB6F894DEBF0FBECDBF89836A838981ED
:10498000282F30E03A87298789859A8581309105DB
:1049900009F466C029853A852230310509F4BBC087
:1049A00089859A85009709F0D5C08A81282F30E043
:1049B00038872F838F8198858130910521F12F8150
:1049C0003885223031052CF48F819885009761F06D
:1049D000C1C02F8138852230310521F18F81988522
:1049E0008330910571F1B6C0A5E5B0E0E5E5F0E0F2
:1049F00080818E7F8C93A5E5B0E0E5E5F0E08081D5
:104A00008D7F8C93A7C0A5E5B0E0E5E5F0E080815F
:104A100081608C93A5E5B0E0E5E5F0E080818D7FD5
:104A20008C9398C0A5E5B0E0E5E5F0E080818E7F4D
:104A30008C93A5E5B0E0E5E5F0E0808182608C93A1
:104A400089C0A5E5B0E0E5E5F0E0808181608C9368
:104A5000A5E5B0E0E5E5F0E0808182608C937AC066
:104A60008A81282F30E03E832D838D819E81813085
:104A7000910521F12D813E81223031052CF48D816B
:104A80009E81009761F066C02D813E812230310504
:104A900021F18D819E818330910571F15BC0A5E587
:104AA000B0E0E5E5F0E080818B7F8C93A5E5B0E098
:104AB000E5E5F0E08081877F8C934CC0A5E5B0E010
:104AC000E5E5F0E0808184608C93A5E5B0E0E5E564
:104AD000F0E08081877F8C933DC0A5E5B0E0E5E5FF
:104AE000F0E080818B7F8C93A5E5B0E0E5E5F0E018
:104AF000808188608C932EC0A5E5B0E0E5E5F0E00C
:104B0000808184608C93A5E5B0E0E5E5F0E08081EC
:104B100088608C931FC08A81282F30E03C832B83D0
:104B20008B819C818230910531F02B813C81233037
:104B3000310549F00FC0A4E5B0E0E4E5F0E0808184
:104B400080648C9307C0A4E5B0E0E4E5F0E08081E8
:104B50008F7B8C932A960FB6F894DEBF0FBECDBF25
:104B6000CF91DF910895DF93CF9300D000D00F92C3
:104B7000CDB7DEB789837B836A838981833088F5EB
:104B80008A819B81009769F18981282F30E03D83DC
:104B90002C838C819D8181309105B1F02C813D81E8
:104BA00022303105C1F08C819D810097D1F4809134
:104BB000DC049091DD040097A1F48A819B8190939D
:104BC000DD048093DC040DC08A819B819093DF0417
:104BD0008093DE0406C08A819B819093E1048093D8
:104BE000E0040F900F900F900F900F90CF91DF91F6
:104BF00008951F920F920FB60F9211242F933F9397
:104C00004F935F936F937F938F939F93AF93BF93D4
:104C1000EF93FF93DF93CF93CDB7DEB78091DC04A2
:104C20009091DD04009729F0E091DC04F091DD041F
:104C30000995CF91DF91FF91EF91BF91AF919F9136
:104C40008F917F916F915F914F913F912F910F9035
:104C50000FBE0F901F901895DF93CF93CDB7DEB79F
:104C60002D970FB6F894DEBF0FBECDBF89836A8340
:104C70004B838981843008F009C18A81883008F02B
:104C800005C18B81823008F001C18981282F30E075
:104C90003D872C878C859D858130910509F44FC017
:104CA0002C853D85223031052CF48C859D8500971F
:104CB00071F0ECC02C853D852230310509F477C0B8
:104CC0008C859D858330910509F4A9C0DFC08B8157
:104CD000282F30E03B872A878A859B85009731F013
:104CE0002A853B8521303105B1F0D0C0AAE3B0E080
:104CF000EAE3F0E08081482F8A81282F30E081E0CC
:104D000090E0022E02C0880F991F0A94E2F7809566
:104D100084238C93BBC0AAE3B0E0EAE3F0E0808197
:104D2000482F8A81282F30E081E090E0022E02C0D7
:104D3000880F991F0A94E2F7842B8C93A7C08B816C
:104D4000282F30E03987288788859985009731F0AA
:104D50002885398521303105B1F098C0A7E3B0E04E
:104D6000E7E3F0E08081482F8A81282F30E081E05E
:104D700090E0022E02C0880F991F0A94E2F78095F6
:104D800084238C9383C0A7E3B0E0E7E3F0E0808165
:104D9000482F8A81282F30E081E090E0022E02C067
:104DA000880F991F0A94E2F7842B8C936FC08B8134
:104DB000282F30E03F832E838E819F81009731F032
:104DC0002E813F8121303105B1F060C0A4E3B0E015
:104DD000E4E3F0E08081482F8A81282F30E081E0F1
:104DE00090E0022E02C0880F991F0A94E2F7809586
:104DF00084238C934BC0A4E3B0E0E4E3F0E0808133
:104E0000482F8A81282F30E081E090E0022E02C0F6
:104E1000880F991F0A94E2F7842B8C9337C08B81FB
:104E2000282F30E03D832C838C819D81009731F0C9
:104E30002C813D8121303105B1F028C0A1E3B0E0E3
:104E4000E1E3F0E08081482F8A81282F30E081E083
:104E500090E0022E02C0880F991F0A94E2F7809515
:104E600084238C9313C0A1E3B0E0E1E3F0E0808100
:104E7000482F8A81282F30E081E090E0022E02C086
:104E8000880F991F0A94E2F7842B8C932D960FB606
:104E9000F894DEBF0FBECDBFCF91DF910895DF93B1
:104EA000CF93CDB7DEB72D970FB6F894DEBF0FBE08
:104EB000CDBF89836A834B838981843008F009C11F
:104EC0008A81883008F005C18B81823008F001C1E9
:104ED0008981282F30E03D872C878C859D85813006
:104EE000910509F44FC02C853D85223031052CF405
:104EF0008C859D85009771F0ECC02C853D85223016
:104F0000310509F477C08C859D858330910509F4BE
:104F1000A9C0DFC08B81282F30E03B872A878A8594
:104F20009B85009731F02A853B8521303105B1F012
:104F3000D0C0ABE3B0E0EBE3F0E08081482F8A81A2
:104F4000282F30E081E090E0022E02C0880F991FE8
:104F50000A94E2F7809584238C93BBC0ABE3B0E066
:104F6000EBE3F0E08081482F8A81282F30E081E058
:104F700090E0022E02C0880F991F0A94E2F7842B5A
:104F80008C93A7C08B81282F30E0398728878885AC
:104F90009985009731F02885398521303105B1F0A8
:104FA00098C0A8E3B0E0E8E3F0E08081482F8A8170
:104FB000282F30E081E090E0022E02C0880F991F78
:104FC0000A94E2F7809584238C9383C0A8E3B0E031
:104FD000E8E3F0E08081482F8A81282F30E081E0EB
:104FE00090E0022E02C0880F991F0A94E2F7842BEA
:104FF0008C936FC08B81282F30E03F832E838E816E
:105000009F81009731F02E813F8121303105B1F031
:1050100060C0A5E3B0E0E5E3F0E08081482F8A813D
:10502000282F30E081E090E0022E02C0880F991F07
:105030000A94E2F7809584238C934BC0A5E3B0E0FB
:10504000E5E3F0E08081482F8A81282F30E081E07D
:1050500090E0022E02C0880F991F0A94E2F7842B79
:105060008C9337C08B81282F30E03D832C838C813B
:105070009D81009731F02C813D8121303105B1F0C7
:1050800028C0A2E3B0E0E2E3F0E08081482F8A810B
:10509000282F30E081E090E0022E02C0880F991F97
:1050A0000A94E2F7809584238C9313C0A2E3B0E0C6
:1050B000E2E3F0E08081482F8A81282F30E081E010
:1050C00090E0022E02C0880F991F0A94E2F7842B09
:1050D0008C932D960FB6F894DEBF0FBECDBFCF9147
:1050E000DF910895DF93CF9300D000D00F92CDB71A
:1050F000DEB78A836B838A81843008F06BC08B8132
:10510000883008F067C08A81282F30E03D832C83E7
:105110004C815D814130510541F18C819D8182300E
:10512000910534F42C813D812115310561F052C087
:105130004C815D814230510551F18C819D818330DC
:105140009105B9F147C0E9E3F0E08081282F30E014
:105150008B81882F90E0A90102C0559547958A95CB
:10516000E2F7CA018170898335C0E6E3F0E080810F
:10517000282F30E08B81882F90E0A90102C055953F
:1051800047958A95E2F7CA018170898323C0E3E3DA
:10519000F0E08081282F30E08B81882F90E0A901FA
:1051A00002C0559547958A95E2F7CA0181708983B7
:1051B00011C0E0E3F0E08081282F30E08B81882F60
:1051C00090E0A90102C0559547958A95E2F7CA017A
:1051D0008170898389810F900F900F900F900F90AD
:1051E000CF91DF910895DF93CF9300D000D0CDB75A
:1051F000DEB789836A838981843008F072C08A812E
:10520000883008F06EC08981282F30E03C832B83E2
:105210008B819C818130910549F12B813C81223029
:1052200031052CF48B819C81009761F05AC02B8151
:105230003C812230310571F18B819C818330910555
:10524000E9F14FC0ABE3B0E0EBE3F0E08081482F41
:105250008A81282F30E081E090E0022E02C0880F82
:10526000991F0A94E2F784278C933BC0A8E3B0E02F
:10527000E8E3F0E08081482F8A81282F30E081E048
:1052800090E0022E02C0880F991F0A94E2F784274B
:105290008C9327C0A5E3B0E0E5E3F0E08081482FE0
:1052A0008A81282F30E081E090E0022E02C0880F32
:1052B000991F0A94E2F784278C9313C0A2E3B0E00D
:1052C000E2E3F0E08081482F8A81282F30E081E0FE
:1052D00090E0022E02C0880F991F0A94E2F78427FB
:1052E0008C930F900F900F900F90CF91DF910895B6
:1052F000DF93CF9300D000D0CDB7DEB789836A8328
:105300008981843090F58981282F30E03C832B837C
:105310008B819C8181309105D1F02B813C812230A1
:1053200031052CF48B819C81009761F01EC02B818C
:105330003C812230310581F08B819C818330910545
:1053400081F013C0EAE3F0E08A8180830EC0E7E3D6
:10535000F0E08A81808309C0E4E3F0E08A81808301
:1053600004C0E1E3F0E08A8180830F900F900F90FA
:105370000F90CF91DF910895DF93CF9300D000D0AD
:10538000CDB7DEB789836A838981843090F58981BE
:10539000282F30E03C832B838B819C8181309105C9
:1053A000D1F02B813C81223031052CF48B819C8102
:1053B000009761F01EC02B813C812230310581F0C5
:1053C0008B819C818330910581F013C0EBE3F0E089
:1053D0008A8180830EC0E8E3F0E08A81808309C07F
:1053E000E5E3F0E08A81808304C0E2E3F0E08A81B3
:1053F00080830F900F900F900F90CF91DF910895C1
:10540000DF93CF93CDB7DEB7EAE3F0E01082E7E3B6
:10541000F0E01082E4E3F0E087E08083E1E3F0E095
:105420008FEF8083EBE3F0E01082E8E3F0E084E0CC
:105430008083E5E3F0E01082E2E3F0E01082CF91B8
:10544000DF910895DF93CF93CDB7DEB782E060E0C0
:1054500041E00E942C2682E061E041E00E942C267F
:1054600082E062E041E00E942C2681E06FEF0E9422
:105470007829CF91DF910895DF93CF93CDB7DEB731
:105480002F970FB6F894DEBF0FBECDBF8F8782E097
:1054900060E040E00E944F2782E061E040E00E942F
:1054A0004F2781E06F850E94BC2982E062E041E0E5
:1054B0000E944F2780E090E0A0E8BFE38B879C87A5
:1054C000AD87BE876B857C858D859E8520E030E02D
:1054D0004AEF54E40E941F02DC01CB018F839887BE
:1054E000A987BA876F81788589859A8520E030E021
:1054F00040E85FE30E94790388232CF481E090E088
:105500009E838D833FC06F81788589859A8520E051
:105510003FEF4FE757E40E94190318164CF56B85CF
:105520007C858D859E8520E030E040E251E40E943C
:105530001F02DC01CB01BC01CD010E944900DC014E
:10554000CB019E838D830FC088EC90E09C838B837E
:105550008B819C810197F1F79C838B838D819E8148
:1055600001979E838D838D819E81009769F714C07A
:105570006F81788589859A850E944900DC01CB017D
:105580009E838D838D819E819A83898389819A816F
:105590000197F1F79A83898382E062E040E00E94FC
:1055A0004F272F960FB6F894DEBF0FBECDBFCF9119
:1055B000DF910895DF93CF93CDB7DEB72F970FB666
:1055C000F894DEBF0FBECDBF8F8782E060E041E080
:1055D0000E944F2782E061E040E00E944F2781E077
:1055E0006F850E94BC2982E062E041E00E944F2763
:1055F00080E090E0A0E8BFE38B879C87AD87BE8703
:105600006B857C858D859E8520E030E04AEF54E4F3
:105610000E941F02DC01CB018F839887A987BA877C
:105620006F81788589859A8520E030E040E85FE3E6
:105630000E94790388232CF481E090E09E838D837F
:105640003FC06F81788589859A8520E03FEF4FE7DD
:1056500057E40E94190318164CF56B857C858D85DF
:105660009E8520E030E040E251E40E941F02DC0110
:10567000CB01BC01CD010E944900DC01CB019E831E
:105680008D830FC088EC90E09C838B838B819C8101
:105690000197F1F79C838B838D819E8101979E8377
:1056A0008D838D819E81009769F714C06F81788505
:1056B00089859A850E944900DC01CB019E838D83F8
:1056C0008D819E819A83898389819A810197F1F7DF
:1056D0009A83898382E062E040E00E944F272F9600
:1056E0000FB6F894DEBF0FBECDBFCF91DF91089506
:1056F0000F931F93DF93CF93CDB7DEB7C654D0403F
:105700000FB6F894DEBF0FBECDBFFE01ED5BFF4FBD
:1057100080E090E0A0E2B2E480839183A283B3832F
:105720008E01015C1F4FFE01ED5BFF4F60817181B7
:105730008281938120E030E04AEF54E40E941F020E
:10574000DC01CB01F80180839183A283B383FE0146
:10575000FF96608171818281938120E030E040E892
:105760005FE30E94790388232CF481E090E09EAFF0
:105770008DAF46C0FE01FF96608171818281938169
:1057800020E03FEF4FE757E40E941903181664F535
:10579000FE01ED5BFF4F608171818281938120E08A
:1057A00030E040E251E40E941F02DC01CB01BC0169
:1057B000CD010E944900DC01CB019EAF8DAF0FC02F
:1057C00088EC90E09CAF8BAF8BAD9CAD0197F1F76F
:1057D0009CAF8BAF8DAD9EAD01979EAF8DAF8DAD64
:1057E0009EAD009769F716C0FE01FF96608171813A
:1057F000828193810E944900DC01CB019EAF8DAF75
:105800008DAD9EAD9AAF89AF89AD9AAD0197F1F795
:105810009AAF89AF88E30E943C2A80E090E0A0E83C
:10582000BFE38DAB9EABAFABB8AF6DA97EA98FA91F
:1058300098AD20E030E04AEF54E40E941F02DC0102
:10584000CB0189AB9AABABABBCAB69A97AA98BA9ED
:105850009CA920E030E040E85FE30E9479038823C0
:105860002CF481E090E098AB8FA73FC069A97AA99A
:105870008BA99CA920E03FEF4FE757E40E94190352
:1058800018164CF56DA97EA98FA998AD20E030E0DF
:1058900040E251E40E941F02DC01CB01BC01CD01BA
:1058A0000E944900DC01CB0198AB8FA70FC088ECA8
:1058B00090E09EA78DA78DA59EA50197F1F79EA7C5
:1058C0008DA78FA598A9019798AB8FA78FA598A9A9
:1058D000009769F714C069A97AA98BA99CA90E94AD
:1058E0004900DC01CB0198AB8FA78FA598A99CA795
:1058F0008BA78BA59CA50197F1F79CA78BA78CE0A4
:105900000E943C2A80E090E0A0E8BFE38FA398A724
:10591000A9A7BAA76FA178A589A59AA520E030E02C
:105920004AEF54E40E941F02DC01CB018BA39CA32D
:10593000ADA3BEA36BA17CA18DA19EA120E030E010
:1059400040E85FE30E94790388232CF481E090E033
:105950009AA389A33FC06BA17CA18DA19EA120E049
:105960003FEF4FE757E40E94190318164CF56FA15B
:1059700078A589A59AA520E030E040E251E40E9494
:105980001F02DC01CB01BC01CD010E944900DC01FA
:10599000CB019AA389A30FC088EC90E098A38F8FC6
:1059A0008F8D98A10197F1F798A38F8F89A19AA164
:1059B00001979AA389A389A19AA1009769F714C0B6
:1059C0006BA17CA18DA19EA10E944900DC01CB01AD
:1059D0009AA389A389A19AA19E8F8D8F8D8D9E8D6B
:1059E0000197F1F79E8F8D8F81E00E943C2A80E025
:1059F00090E0A0E0B0E4898F9A8FAB8FBC8F698D67
:105A00007A8D8B8D9C8D20E030E04AEF54E40E942B
:105A10001F02DC01CB018D8B9E8BAF8BB88F6D8904
:105A20007E898F89988D20E030E040E85FE30E9416
:105A3000790388232CF481E090E09C8B8B8B3FC012
:105A40006D897E898F89988D20E03FEF4FE757E47D
:105A50000E94190318164CF5698D7A8D8B8D9C8DDB
:105A600020E030E040E251E40E941F02DC01CB0163
:105A7000BC01CD010E944900DC01CB019C8B8B8BCA
:105A80000FC088EC90E09A8B898B89899A8901975D
:105A9000F1F79A8B898B8B899C8901979C8B8B8BD7
:105AA0008B899C89009769F714C06D897E898F89DD
:105AB000988D0E944900DC01CB019C8B8B8B8B89DC
:105AC0009C89988B8F878F8598890197F1F7988BA0
:105AD0008F8786E00E943C2A80E090E0A0E8BFE348
