:100000000C942A000C943F000C943F000C943F0089
:100010000C943F000C943F000C943F000C943F0064
:100020000C943F000C943F000C943F000C943F0054
:100030000C943F000C943F000C943F000C943F0044
:100040000C943F000C943F000C943F000C943F0034
:100050000C943F0011241FBECFE5D8E0DEBFCDBF1A
:1000600011E0A0E6B0E0EEE9FFE202C005900D92DB
:10007000A639B107D9F70E9463060C94CD170C94EA
:100080000000EF92FF920F931F937B018C0120E001
:1000900030E040E05FE40E94410388238CF0C80117
:1000A000B70120E030E040E05FE40E94B9010E9427
:1000B000A1039B01AC01205030404040504806C095
:1000C000C801B7010E94A1039B01AC01B901CA019B
:1000D0001F910F91FF90EF900895A0E0B0E0E3E74B
:1000E000F0E00C949617DC012B01FA019C91923000
:1000F00008F439C1EB018881823008F433C19430AF
:1001000069F4843009F02FC111969C91119789816F
:10011000981709F428C1A0E6B0E025C1843009F49D
:1001200021C18230A9F4923009F01DC19A01AD01BC
:1001300088E0EA010990AE01E90109929E0181502F
:10014000C1F7E201898111969C918923818308C1BD
:10015000923009F407C112962D903C901397EB0151
:100160008A819B811496AD90BD90CD90DC901797BD
:10017000EC80FD800E811F819101281B390BB90194
:1001800037FF04C066277727621B730B6032710547
:100190000CF061C0121613066CF537014801062EEB
:1001A00004C096948794779467940A94D2F721E0D8
:1001B00030E040E050E004C0220F331F441F551FC1
:1001C0006A95D2F721503040404050402E213F21C7
:1001D00040235123211531054105510521F021E02E
:1001E00030E040E050E079018A01E628F72808294C
:1001F00019293CC0232BD1F1260E371E35014601AB
:10020000062E04C096948794779467940A94D2F744
:1002100021E030E040E050E004C0220F331F441FD3
:10022000551F6A95D2F721503040404050402A2156
:100230003B214C215D21211531054105510521F05E
:1002400021E030E040E050E059016A01A628B728DB
:10025000C828D9280BC0821593052CF01C01AA24AC
:10026000BB24650103C0EE24FF24870111969C91F5
:10027000D20111968C91981709F445C0992339F051
:10028000A80197012A193B094C095D0906C0A6017E
:1002900095012E193F09400B510B57FD08C01182E3
:1002A0003382228224833583468357831DC081E0B5
:1002B00081833382228288279927DC01821B930B5A
:1002C000A40BB50B84839583A683B7830DC0220F3F
:1002D000331F441F551F24833583468357838281F0
:1002E000938101979383828324813581468157814D
:1002F000DA01C9010197A109B1098F5F9F4FAF4F83
:10030000BF4328F30BC0918333822282EA0CFB1C8B
:100310000C1D1D1DE482F5820683178383E0808314
:10032000248135814681578157FF1AC0C901AA2708
:1003300097FDA095BA2F81709070A070B0705695FF
:10034000479537952795822B932BA42BB52B848328
:100350009583A683B7838281938101969383828359
:10036000DF0101C0D201CD01CDB7DEB7E2E10C94CF
:10037000B217A0E2B0E0EFEBF1E00C94A2176983B2
:100380007A838B839C832D833E834F835887E9E058
:10039000EE2EF12CEC0EFD1ECE010196B7010E944F
:1003A00092058E010F5E1F4FCE010596B8010E9487
:1003B00092058A8991E089278A8BC701B801AE012D
:1003C000475E5F4F0E946D000E94BD04A096E6E06C
:1003D0000C94BE17A0E2B0E0E0EFF1E00C94A2179D
:1003E00069837A838B839C832D833E834F835887D5
:1003F000F9E0EF2EF12CEC0EFD1ECE010196B701B7
:100400000E9492058E010F5E1F4FCE010596B80126
:100410000E949205C701B801AE01475E5F4F0E947E
:100420006D000E94BD04A096E6E00C94BE17A0E209
:10043000B0E0EDE1F2E00C94961769837A838B8348
:100440009C832D833E834F835887CE010196BE0146
:10045000675F7F4F0E949205CE010596BE016F5ED9
:100460007F4F0E9492059985923088F08989823069
:10047000C8F0943019F4823051F404C0843029F467
:10048000923081F480E690E0C6C0923049F420E0DA
:100490009A858A89981321E02A87CE010996BBC0E4
:1004A000823049F420E09A858A89981321E02A8BCA
:1004B000CE014196B0C02D843E844F8458886D880B
:1004C0007E888F88988CEE24FF248701AA24BB2481
:1004D000650140E050E060E070E0E0E0F0E0C10184
:1004E00081709070892BE9F0E60CF71C081D191D2E
:1004F0009A01AB012A0D3B1D4C1D5D1D80E090E073
:10050000A0E0B0E0E614F7040805190520F481E046
:1005100090E0A0E0B0E0BA01A901480F591F6A1F9E
:100520007B1FAA0CBB1CCC1CDD1C97FE08C081E005
:1005300090E0A0E0B0E0A82AB92ACA2ADB2A3196C6
:10054000E032F10549F0660C771C881C991C569422
:10055000479437942794C3CFFA85EA892B893C893D
:100560008B859C85280F391F2E5F3F4F17C0CA010E
:1005700081709070892B61F016950795F794E79438
:1005800080E090E0A0E0B0E8E82AF92A0A2B1B2BD3
:1005900076956795579547952F5F3F4F77FDE7CF46
:1005A0000CC0440F551F661F771F17FD4160EE0CEE
:1005B000FF1C001F111F21503040403090E05907B0
:1005C00090E0690790E4790760F32B8F3C8FDB01A3
:1005D000CA018F779070A070B07080349105A1052A
:1005E000B10561F447FD0AC0E114F10401051105EC
:1005F00029F0405C5F4F6F4F7F4F40781A8EFE1797
:1006000011F081E08A8F4D8F5E8F6F8F78A383E02A
:10061000898FCE0149960E94BD04A096E2E10C9418
:10062000B217A8E1B0E0E7E1F3E00C94A217698308
:100630007A838B839C832D833E834F83588789E005
:10064000E82EF12CEC0EFD1ECE010196B7010E94A2
:1006500092058E010F5E1F4FCE010596B8010E94D4
:1006600092058985823040F08989823028F0C7015F
:10067000B8010E940A0601C08FEF6896E6E00C946C
:10068000BE17A8E1B0E0E7E4F3E00C94A217698399
:100690007A838B839C832D833E834F83588789E0A5
:1006A000E82EF12CEC0EFD1ECE010196B7010E9442
:1006B00092058E010F5E1F4FCE010596B8010E9474
:1006C00092058985823040F08989823028F0C701FF
:1006D000B8010E940A0601C08FEF6896E6E00C940C
:1006E000BE17A8E1B0E0E7E7F3E00C94A217698336
:1006F0007A838B839C832D833E834F83588789E045
:10070000E82EF12CEC0EFD1ECE010196B7010E94E1
:1007100092058E010F5E1F4FCE010596B8010E9413
:1007200092058985823040F08989823028F0C7019E
:10073000B8010E940A0601C081E06896E6E00C94C8
:10074000BE17ACE0B0E0E7EAF3E00C94A6176983CB
:100750007A838B839C83CE010196BE016B5F7F4FB2
:100760000E9492058D81823061F1823050F1843097
:1007700021F48E81882351F12EC02F81388537FDD9
:1007800020C06E812F3131051CF06623F9F023C0A3
:100790008EE190E0821B930B29853A854B855C8521
:1007A00004C056954795379527958A95D2F76623C5
:1007B000B1F050954095309521953F4F4F4F5F4F89
:1007C0000EC020E030E040E050E009C02FEF3FEFE6
:1007D0004FEF5FE704C020E030E040E050E8B901AF
:1007E000CA012C96E2E00C94C217A8E0B0E0EBEF4F
:1007F000F3E00C949E177B018C0161157105810556
:10080000910519F482E0898360C083E089838EE1D9
:10081000C82ED12CDC82CB82ED82FE820F8318871A
:10082000C801B7010E946E04FC013197F7FF3BC07D
:10083000222733272E1B3F0B57016801022E04C0CD
:10084000D694C794B794A7940A94D2F740E050E0A6
:1008500060E070E081E090E0A0E0B0E004C0880FCC
:10086000991FAA1FBB1F2A95D2F70197A109B109A9
:100870008E219F21A023B1230097A105B10521F06E
:1008800041E050E060E070E04A295B296C297D2955
:100890004D835E836F8378878EE190E08E1B9F0B84
:1008A0009C838B8312C0309781F00E2E04C0EE0C17
:1008B000FF1C001F111F0A94D2F7ED82FE820F83E6
:1008C0001887CE1ADF0ADC82CB821A82CE0101960B
:1008D0000E94BD042896EAE00C94BA17EF92FF92AA
:1008E0000F931F937B018C0180E0E81680E0F806EF
:1008F00081E0080780E0180788F48FEFE816F1041C
:100900000105110531F028F088E090E0A0E0B0E0AA
:1009100017C080E090E0A0E0B0E012C080E0E816F0
:1009200080E0F80680E0080781E0180728F088E1F9
:1009300090E0A0E0B0E004C080E190E0A0E0B0E092
:1009400020E230E040E050E0281B390B4A0B5B0B03
:1009500004C016950795F794E7948A95D2F7F701A6
:10096000E859FF4F8081281B310941095109C9010C
:100970001F910F91FF90EF900895DF92EF92FF92F9
:100980000F931F93FC01E480F58006811781D180CD
:100990008081823048F480E090E0A0E1B0E0E82A75
:1009A000F92A0A2B1B2BA5C0843009F49FC0823082
:1009B00021F4EE24FF24870105C0E114F1040105B0
:1009C000110519F4E0E0F0E096C0628173819FEFB9
:1009D000623879070CF05BC022E83FEF261B370B2B
:1009E0002A3131052CF020E030E040E050E02AC010
:1009F000B801A701022E04C07695679557954795D3
:100A00000A94D2F781E090E0A0E0B0E004C0880F43
:100A1000991FAA1FBB1F2A95D2F70197A109B109F7
:100A20008E219F21A023B1230097A105B10521F0BC
:100A300081E090E0A0E0B0E09A01AB01282B392BD7
:100A40004A2B5B2BDA01C9018F779070A070B070D0
:100A500080349105A105B10539F427FF09C0205C58
:100A60003F4F4F4F5F4F04C0215C3F4F4F4F5F4F91
:100A7000E0E0F0E02030A0E03A07A0E04A07A0E480
:100A80005A0710F0E1E0F0E079018A0127C06038F0
:100A9000710564F5FB01E158FF4FD801C7018F775D
:100AA0009070A070B07080349105A105B10539F443
:100AB000E7FE0DC080E490E0A0E0B0E004C08FE36A
:100AC00090E0A0E0B0E0E80EF91E0A1F1B1F17FF20
:100AD00005C016950795F794E794319687E016952B
:100AE0000795F794E7948A95D1F705C0EE24FF2483
:100AF0008701EFEFF0E06E2F679566276795902FDF
:100B00009F77D794DD24D7948E2F8695492F462B37
:100B1000582F5D29B701CA011F910F91FF90EF90E7
:100B2000DF900895FC01DB01408151812281622F19
:100B30006F7770E0221F2227221F9381892F880F51
:100B4000822B282F30E0991F9927991F11969C938B
:100B5000119721153105A9F541155105610571055B
:100B600011F482E037C082E89FEF13969C938E9336
:100B700012979A01AB0167E0220F331F441F551FE4
:100B80006A95D1F783E08C930DC0220F331F441F69
:100B9000551F12968D919C911397019713969C93D4
:100BA0008E931297203080E0380780E0480780E479
:100BB000580758F314962D933D934D935C931797D4
:100BC00008952F3F310579F44115510561057105EF
:100BD00019F484E08C93089564FF03C081E08C9342
:100BE00012C01C9210C02F57304013963C932E9386
:100BF000129783E08C9387E0440F551F661F771F81
:100C00008A95D1F7706414964D935D936D937C93A0
:100C1000179708951F93DC01FB019C91923008F413
:100C200047C08081823008F443C0943051F411965B
:100C30001C91843099F58181682F70E0611B7109E6
:100C40003FC0843021F0923031F48230B9F181819B
:100C5000882389F12DC011961C9111978230F1F0F3
:100C600081811817D9F412962D913C9113978281A6
:100C700093818217930794F028173907BCF01496D4
:100C80008D919D910D90BC91A02D2481358146813F
:100C90005781281739074A075B0718F4112341F0D9
:100CA0000AC082179307A407B50740F4112319F06F
:100CB00061E070E005C06FEF7FEF02C060E070E0C0
:100CC000CB011F910895DF93CF93CDB7DEB76E9719
:100CD0000FB6F894DEBF0FBECDBFCE0140969B8FFE
:100CE0008A8FE8E7F1E0FD8FEC8FFAE0FE8FEC8D64
:100CF000FD8D00808C8D9D8D01969D8F8C8FEA8D52
:100D0000FB8D00828A8D9B8D01969B8F8A8F9E8D95
:100D100091509E8FEE8DEE2351F70E9495110E9407
:100D2000EB120E94411681E00E94150B0E945216A0
:100D30008F878F858F3FD1F38F850E944D128F85CE
:100D4000282F30E0CE014096FC01E20FF31F908186
:100D500081E0692F0E94680B80E090E0A8E4B2E493
:100D60008B879C87AD87BE876B857C858D859E85AF
:100D700020E030E04AEF54E40E941702DC01CB018E
:100D80008F839887A987BA876F81788589859A85A7
:100D900020E030E040E85FE30E94710388232CF4F8
:100DA00081E090E09E838D833FC06F817885898547
:100DB0009A8520E03FEF4FE757E40E941103181691
:100DC0004CF56B857C858D859E8520E030E040E28A
:100DD00051E40E941702DC01CB01BC01CD010E944D
:100DE0004100DC01CB019E838D830FC088EC90E035
:100DF0009C838B838B819C810197F1F79C838B83F0
:100E00008D819E8101979E838D838D819E81009728
:100E100069F78CCF6F81788589859A850E9441001A
:100E2000DC01CB019E838D838D819E819A83898392
:100E300089819A810197F1F79A83898377CFDF932C
:100E4000CF93CDB7DEB72D970FB6F894DEBF0FBEA8
:100E5000CDBF89836A834B838981843008F009C1BF
:100E60008A81883008F005C18B81823008F001C189
:100E70008981282F30E03D872C878C859D858130A6
:100E8000910509F44FC02C853D85223031052CF4A5
:100E90008C859D85009771F0ECC02C853D852230B6
:100EA000310509F477C08C859D858330910509F45F
:100EB000A9C0DFC08B81282F30E03B872A878A8535
:100EC0009B85009731F02A853B8521303105B1F0B3
:100ED000D0C0AAE3B0E0EAE3F0E08081482F8A8145
:100EE000282F30E081E090E0022E02C0880F991F89
:100EF0000A94E2F7809584238C93BBC0AAE3B0E008
:100F0000EAE3F0E08081482F8A81282F30E081E0F9
:100F100090E0022E02C0880F991F0A94E2F7842BFA
:100F20008C93A7C08B81282F30E03987288788854C
:100F30009985009731F02885398521303105B1F048
:100F400098C0A7E3B0E0E7E3F0E08081482F8A8112
:100F5000282F30E081E090E0022E02C0880F991F18
:100F60000A94E2F7809584238C9383C0A7E3B0E0D2
:100F7000E7E3F0E08081482F8A81282F30E081E08C
:100F800090E0022E02C0880F991F0A94E2F7842B8A
:100F90008C936FC08B81282F30E03F832E838E810E
:100FA0009F81009731F02E813F8121303105B1F0D2
:100FB00060C0A4E3B0E0E4E3F0E08081482F8A81E0
:100FC000282F30E081E090E0022E02C0880F991FA8
:100FD0000A94E2F7809584238C934BC0A4E3B0E09D
:100FE000E4E3F0E08081482F8A81282F30E081E01F
:100FF00090E0022E02C0880F991F0A94E2F7842B1A
:101000008C9337C08B81282F30E03D832C838C81DB
:101010009D81009731F02C813D8121303105B1F067
:1010200028C0A1E3B0E0E1E3F0E08081482F8A81AD
:10103000282F30E081E090E0022E02C0880F991F37
:101040000A94E2F7809584238C9313C0A1E3B0E067
:10105000E1E3F0E08081482F8A81282F30E081E0B1
:1010600090E0022E02C0880F991F0A94E2F7842BA9
:101070008C932D960FB6F894DEBF0FBECDBFCF91E7
:10108000DF910895DF93CF93CDB7DEB72D970FB6DD
:10109000F894DEBF0FBECDBF89836A834B838981FD
:1010A000843008F009C18A81883008F005C18B813D
:1010B000823008F001C18981282F30E03D872C87DC
:1010C0008C859D858130910509F44FC02C853D8527
:1010D000223031052CF48C859D85009771F0ECC091
:1010E0002C853D852230310509F477C08C859D859E
:1010F0008330910509F4A9C0DFC08B81282F30E02F
:101100003B872A878A859B85009731F02A853B8516
:1011100021303105B1F0D0C0ABE3B0E0EBE3F0E05B
:101120008081482F8A81282F30E081E090E0022ED4
:1011300002C0880F991F0A94E2F7809584238C934C
:10114000BBC0ABE3B0E0EBE3F0E08081482F8A81E5
:10115000282F30E081E090E0022E02C0880F991F16
:101160000A94E2F7842B8C93A7C08B81282F30E060
:101170003987288788859985009731F028853985B2
:1011800021303105B1F098C0A8E3B0E0E8E3F0E029
:101190008081482F8A81282F30E081E090E0022E64
:1011A00002C0880F991F0A94E2F7809584238C93DC
:1011B00083C0A8E3B0E0E8E3F0E08081482F8A81B3
:1011C000282F30E081E090E0022E02C0880F991FA6
:1011D0000A94E2F7842B8C936FC08B81282F30E028
:1011E0003F832E838E819F81009731F02E813F8136
:1011F00021303105B1F060C0A5E3B0E0E5E3F0E0F7
:101200008081482F8A81282F30E081E090E0022EF3
:1012100002C0880F991F0A94E2F7809584238C936B
:101220004BC0A5E3B0E0E5E3F0E08081482F8A8180
:10123000282F30E081E090E0022E02C0880F991F35
:101240000A94E2F7842B8C9337C08B81282F30E0EF
:101250003D832C838C819D81009731F02C813D81D1
:1012600021303105B1F028C0A2E3B0E0E2E3F0E0C4
:101270008081482F8A81282F30E081E090E0022E83
:1012800002C0880F991F0A94E2F7809584238C93FB
:1012900013C0A2E3B0E0E2E3F0E08081482F8A814E
:1012A000282F30E081E090E0022E02C0880F991FC5
:1012B0000A94E2F7842B8C932D960FB6F894DEBF38
:1012C0000FBECDBFCF91DF910895DF93CF9300D0B4
:1012D00000D00F92CDB7DEB78A836B838A818430CA
:1012E00008F06BC08B81883008F067C08A81282F96
:1012F00030E03D832C834C815D814130510541F1CB
:101300008C819D818230910534F42C813D812115A1
:10131000310561F052C04C815D814230510551F17F
:101320008C819D8183309105B9F147C0E9E3F0E0FC
:101330008081282F30E08B81882F90E0A90102C0A6
:10134000559547958A95E2F7CA018170898335C022
:10135000E6E3F0E08081282F30E08B81882F90E059
:10136000A90102C0559547958A95E2F7CA01817097
:10137000898323C0E3E3F0E08081282F30E08B8174
:10138000882F90E0A90102C0559547958A95E2F70C
:10139000CA018170898311C0E0E3F0E08081282FC9
:1013A00030E08B81882F90E0A90102C055954795C8
:1013B0008A95E2F7CA018170898389810F900F9025
:1013C0000F900F900F90CF91DF910895DF93CF93FF
:1013D00000D000D0CDB7DEB789836A83898184309D
:1013E00008F072C08A81883008F06EC08981282F89
:1013F00030E03C832B838B819C818130910549F1C6
:101400002B813C81223031052CF48B819C8100970B
:1014100061F05AC02B813C812230310571F18B8102
:101420009C8183309105E9F14FC0ABE3B0E0EBE381
:10143000F0E08081482F8A81282F30E081E090E021
:10144000022E02C0880F991F0A94E2F784278C931A
:101450003BC0A8E3B0E0E8E3F0E08081482F8A8158
:10146000282F30E081E090E0022E02C0880F991F03
:101470000A94E2F784278C9327C0A5E3B0E0E5E364
:10148000F0E08081482F8A81282F30E081E090E0D1
:10149000022E02C0880F991F0A94E2F784278C93CA
:1014A00013C0A2E3B0E0E2E3F0E08081482F8A813C
:1014B000282F30E081E090E0022E02C0880F991FB3
:1014C0000A94E2F784278C930F900F900F900F905F
:1014D000CF91DF910895DF93CF9300D000D0CDB7A7
:1014E000DEB789836A838981843090F58981282FCA
:1014F00030E03C832B838B819C8181309105D1F03E
:101500002B813C81223031052CF48B819C8100970A
:1015100061F01EC02B813C812230310581F08B812E
:101520009C818330910581F013C0EAE3F0E08A8169
:1015300080830EC0E7E3F0E08A81808309C0E4E3A2
:10154000F0E08A81808304C0E1E3F0E08A81808357
:101550000F900F900F900F90CF91DF910895DF9330
:10156000CF9300D000D0CDB7DEB789836A8389815D
:10157000843090F58981282F30E03C832B838B8148
:101580009C8181309105D1F02B813C812230310545
:101590002CF48B819C81009761F01EC02B813C81D3
:1015A0002230310581F08B819C818330910581F05F
:1015B00013C0EBE3F0E08A8180830EC0E8E3F0E043
:1015C0008A81808309C0E5E3F0E08A81808304C0DA
:1015D000E2E3F0E08A8180830F900F900F900F90EC
:1015E000CF91DF910895DF93CF93CDB7DEB7EAE3D4
:1015F000F0E01082E7E3F0E01082E4E3F0E087E05F
:101600008083E1E3F0E08FEF8083EBE3F0E0108292
:10161000E8E3F0E084E08083E5E3F0E01082E2E3D9
:10162000F0E01082CF91DF910895DF93CF9300D047
:101630000F92CDB7DEB789838981843008F042C02C
:101640008981282F30E03B832A838A819B818130E6
:101650009105F1F02A813B81223031052CF48A81F9
:101660009B81009761F02EC02A813B812230310599
:10167000C1F08A819B8183309105E1F023C089818B
:101680006FEF0E946B0A89816FEF0E94AF0A1AC048
:1016900089816FEF0E946B0A89816FEF0E94AF0A08
:1016A00011C089816FEF0E946B0A89816FEF0E94E0
:1016B000AF0A08C089816FEF0E946B0A89816FEFC2
:1016C0000E94AF0A0F900F900F90CF91DF91089575
:1016D000DF93CF9300D000D0CDB7DEB789836A8384
:1016E0008981843090F58981282F30E03C832B83D9
:1016F0008B819C8181309105D1F02B813C812230FE
:1017000031052CF48B819C81009761F01EC02B81E8
:101710003C812230310581F08B819C8183309105A1
:1017200081F013C089816A810E94AF0A0EC089814D
:101730006A810E94AF0A09C089816A810E94AF0A4A
:1017400004C089816A810E94AF0A0F900F900F90A8
:101750000F90CF91DF910895DF93CF93CDB7DEB790
:10176000C055D0400FB6F894DEBF0FBECDBFFE010E
:10177000E95BFF4F8083FE01E85BFF4F718360836D
:101780009E01235C3F4F2E963FAF2EAF2E9782E8EF
:1017900091E060969FAF8EAF60979AE061969FAFA1
:1017A00061976096EEADFFAD6097008060962EADBC
:1017B0003FAD60972F5F3F4F60963FAF2EAF609772
:1017C0002E96EEADFFAD2E9700822E962EAD3FAD3C
:1017D0002E972F5F3F4F2E963FAF2EAF2E976196DD
:1017E0003FAD6197315061963FAF619761968FAD84
:1017F00061978823B1F6FE01E95BFF4F8081843059
:1018000008F07CC2FE01E95BFF4F8081E82FF0E029
:101810002C96FFAFEEAF2C972C962EAD3FAD2C97AC
:101820002130310509F4B2C02C968EAD9FAD2C97B6
:10183000823091053CF42C96EEADFFAD2C9730979D
:1018400091F05CC22C962EAD3FAD2C972230310525
:1018500009F42FC12C968EAD9FAD2C978330910546
:1018600009F4BAC14BC21CAE8CC08CAD282F30E03D
:10187000CE01CD96FC01E20FF31F908180E0692F2D
:101880000E94680BFE01E85BFF4F80819181CC01D3
:10189000A0E0B0E0BC01CD010E94F503DC01CB016A
:1018A0008DAB9EABAFABB8AF6DA97EA98FA998AD3C
:1018B00020E030E04AEF54E40E941702DC01CB0143
:1018C00089AB9AABABABBCAB69A97AA98BA99CA934
:1018D00020E030E040E85FE30E94710388232CF4AD
:1018E00081E090E098AB8FA73FC069A97AA98BA946
:1018F0009CA920E03FEF4FE757E40E941103181620
:101900004CF56DA97EA98FA998AD20E030E040E2AA
:1019100051E40E941702DC01CB01BC01CD010E9401
:101920004100DC01CB0198AB8FA70FC088EC90E0A1
:101930009EA78DA78DA59EA50197F1F79EA78DA7C0
:101940008FA598A9019798AB8FA78FA598A9009705
:1019500069F714C069A97AA98BA99CA90E944100C2
:10196000DC01CB0198AB8FA78FA598A99CA78BA76B
:101970008BA59CA50197F1F79CA78BA78CAD8F5FDA
:101980008CAF8CAD8A3008F470CFB8C11BAE8CC060
:101990008BAD282F30E0CE01CD96FC01E20FF31F76
:1019A000908181E0692F0E94680BFE01E85BFF4F88
:1019B00080819181CC01A0E0B0E0BC01CD010E940A
:1019C000F503DC01CB018FA398A7A9A7BAA76FA144
:1019D00078A589A59AA520E030E04AEF54E40E945A
:1019E0001702DC01CB018BA39CA3ADA3BEA36BA10B
:1019F0007CA18DA19EA120E030E040E85FE30E9441
:101A0000710388232CF481E090E09AA389A33FC05E
:101A10006BA17CA18DA19EA120E03FEF4FE757E491
:101A20000E94110318164CF56FA178A589A59AA5F7
:101A300020E030E040E251E40E941702DC01CB01DB
:101A4000BC01CD010E944100DC01CB019AA389A316
:101A50000FC088EC90E098A38F8F8F8D98A101978D
:101A6000F1F798A38F8F89A19AA101979AA389A3CF
:101A700089A19AA1009769F714C06BA17CA18DA1DF
:101A80009EA10E944100DC01CB019AA389A389A1F8
:101A90009AA19E8F8D8F8D8D9E8D0197F1F79E8FD0
:101AA0008D8F8BAD8F5F8BAF8BAD8A3008F470CF8D
:101AB00025C11AAE8CC08AAD282F30E0CE01CD965C
:101AC000FC01E20FF31F908182E0692F0E94680BF6
:101AD000FE01E85BFF4F80819181CC01A0E0B0E086
:101AE000BC01CD010E94F503DC01CB01898F9A8FE7
:101AF000AB8FBC8F698D7A8D8B8D9C8D20E030E013
:101B00004AEF54E40E941702DC01CB018D8B9E8BBF
:101B1000AF8BB88F6D897E898F89988D20E030E0FA
:101B200040E85FE30E94710388232CF481E090E099
:101B30009C8B8B8B3FC06D897E898F89988D20E02F
:101B40003FEF4FE757E40E94110318164CF5698DDB
:101B50007A8D8B8D9C8D20E030E040E251E40E9434
:101B60001702DC01CB01BC01CD010E944100DC0168
:101B7000CB019C8B8B8B0FC088EC90E09A8B898B70
:101B800089899A890197F1F79A8B898B8B899C892E
:101B900001979C8B8B8B8B899C89009769F714C06C
:101BA0006D897E898F89988D0E944100DC01CB016F
:101BB0009C8B8B8B8B899C89988B8F878F85988941
:101BC0000197F1F7988B8F878AAD8F5F8AAF8AADC7
:101BD0008A3008F470CF92C019AE8CC089AD282F1E
:101BE00030E0CE01CD96FC01E20FF31F908183E03F
:101BF000692F0E94680BFE01E85BFF4F8081918195
:101C0000CC01A0E0B0E0BC01CD010E94F503DC01F5
:101C1000CB018B879C87AD87BE876B857C858D8547
:101C20009E8520E030E04AEF54E40E941702DC0178
:101C3000CB018F839887A987BA876F81788589853B
:101C40009A8520E030E040E85FE30E94710388233A
:101C50002CF481E090E09E838D833FC06F81788576
:101C600089859A8520E03FEF4FE757E40E941103F2
:101C700018164CF56B857C858D859E8520E030E0BF
:101C800040E251E40E941702DC01CB01BC01CD010E
:101C90000E944100DC01CB019E838D830FC088EC44
:101CA00090E09C838B838B819C810197F1F79C83CF
:101CB0008B838D819E8101979E838D838D819E81F3
:101CC000009769F714C06F81788589859A850E948D
:101CD0004100DC01CB019E838D838D819E819A839F
:101CE000898389819A810197F1F79A83898389ADE4
:101CF0008F5F89AF89AD8A3008F470CFC05BDF4F4A
:101D00000FB6F894DEBF0FBECDBFCF91DF9108951F
:101D1000DF93CF93CDB7DEB7C155D0400FB6F8945F
:101D2000DEBF0FBECDBFFE01E95BFF4F8083FE012A
:101D3000E85BFF4F6083FE01E75BFF4F5183408309
:101D40009E01235C3F4F2F963FAF2EAF2F978CE81D
:101D500091E061969FAF8EAF61979AE062969FAFD8
:101D600062976196EEADFFAD6197008061962EADF2
:101D70003FAD61972F5F3F4F61963FAF2EAF6197A9
:101D80002F96EEADFFAD2F9700822F962EAD3FAD73
:101D90002F972F5F3F4F2F963FAF2EAF2F97629613
:101DA0003FAD6297315062963FAF629762968FADBA
:101DB00062978823B1F6FE01E95BFF4F8081843092
:101DC00008F09BC2FE01E95BFF4F8081E82FF0E045
:101DD0002D96FFAFEEAF2D972D962EAD3FAD2D97E3
:101DE0002130310509F4B8C02D968EAD9FAD2D97E9
:101DF000823091053CF42D96EEADFFAD2D973097D6
:101E000091F074C22D962EAD3FAD2D972230310545
:101E100009F43BC12D968EAD9FAD2D978330910572
:101E200009F4CCC163C2FE01E85BFF4F80818CAF37
:101E30008EC08CAD282F332727FD3095CE01CD964F
:101E4000FC01E20FF31F908180E0692F0E94680B74
:101E5000FE01E75BFF4F80819181CC01A0E0B0E003
:101E6000BC01CD010E94F503DC01CB018DAB9EAB23
:101E7000AFABB8AF6DA97EA98FA998AD20E030E0D7
:101E80004AEF54E40E941702DC01CB0189AB9AAB04
:101E9000ABABBCAB69A97AA98BA99CA920E030E0C7
:101EA00040E85FE30E94710388232CF481E090E016
:101EB00098AB8FA73FC069A97AA98BA99CA920E0FC
:101EC0003FEF4FE757E40E94110318164CF56DA938
:101ED0007EA98FA998AD20E030E040E251E40E9455
:101EE0001702DC01CB01BC01CD010E944100DC01E5
:101EF000CB0198AB8FA70FC088EC90E09EA78DA771
:101F00008DA59EA50197F1F79EA78DA78FA598A9EE
:101F1000019798AB8FA78FA598A9009769F714C070
:101F200069A97AA98BA99CA90E944100DC01CB0177
:101F300098AB8FA78FA598A99CA78BA78BA59CA5CD
:101F40000197F1F79CA78BA78CAD81508CAF8CAD1E
:101F500088230CF06ECFCAC1FE01E85BFF4F808181
:101F60008BAF8EC08BAD282F332727FD3095CE0148
:101F7000CD96FC01E20FF31F908181E0692F0E9452
:101F8000680BFE01E75BFF4F80819181CC01A0E0EF
:101F9000B0E0BC01CD010E94F503DC01CB018FA3B1
:101FA00098A7A9A7BAA76FA178A589A59AA520E0A7
:101FB00030E04AEF54E40E941702DC01CB018BA30E
:101FC0009CA3ADA3BEA36BA17CA18DA19EA120E08B
:101FD00030E040E85FE30E94710388232CF481E045
:101FE00090E09AA389A33FC06BA17CA18DA19EA183
:101FF00020E03FEF4FE757E40E94110318164CF51D
:102000006FA178A589A59AA520E030E040E251E4CF
:102010000E941702DC01CB01BC01CD010E944100EE
:10202000DC01CB019AA389A30FC088EC90E098A3B0
:102030008F8F8F8D98A10197F1F798A38F8F89A12A
:102040009AA101979AA389A389A19AA1009769F7F8
:1020500014C06BA17CA18DA19EA10E944100DC0156
:10206000CB019AA389A389A19AA19E8F8D8F8D8D73
:102070009E8D0197F1F79E8F8D8F8BAD81508BAF29
:102080008BAD88230CF06ECF31C1FE01E85BFF4FB2
:1020900080818AAF8EC08AAD282F332727FD3095E7
:1020A000CE01CD96FC01E20FF31F908182E0692FF3
:1020B0000E94680BFE01E75BFF4F80819181CC019C
:1020C000A0E0B0E0BC01CD010E94F503DC01CB0132
:1020D000898F9A8FAB8FBC8F698D7A8D8B8D9C8DFC
:1020E00020E030E04AEF54E40E941702DC01CB010B
:1020F0008D8B9E8BAF8BB88F6D897E898F89988DE4
:1021000020E030E040E85FE30E94710388232CF474
:1021100081E090E09C8B8B8B3FC06D897E898F899D
:10212000988D20E03FEF4FE757E40E941103181607
:102130004CF5698D7A8D8B8D9C8D20E030E040E2EE
:1021400051E40E941702DC01CB01BC01CD010E94C9
:102150004100DC01CB019C8B8B8B0FC088EC90E0A5
:102160009A8B898B89899A890197F1F79A8B898B48
:102170008B899C8901979C8B8B8B8B899C89009781
:1021800069F714C06D897E898F89988D0E944100FE
:10219000DC01CB019C8B8B8B8B899C89988B8F87E7
:1021A0008F8598890197F1F7988B8F878AAD815039
:1021B0008AAF8AAD88230CF06ECF98C0FE01E85B31
:1021C000FF4F808189AF8EC089AD282F332727FD2F
:1021D0003095CE01CD96FC01E20FF31F908183E094
:1021E000692F0E94680BFE01E75BFF4F80819181A0
:1021F000CC01A0E0B0E0BC01CD010E94F503DC0100
:10220000CB018B879C87AD87BE876B857C858D8551
:102210009E8520E030E04AEF54E40E941702DC0182
:10222000CB018F839887A987BA876F817885898545
:102230009A8520E030E040E85FE30E947103882344
:102240002CF481E090E09E838D833FC06F81788580
:1022500089859A8520E03FEF4FE757E40E941103FC
:1022600018164CF56B857C858D859E8520E030E0C9
:1022700040E251E40E941702DC01CB01BC01CD0118
:102280000E944100DC01CB019E838D830FC088EC4E
:1022900090E09C838B838B819C810197F1F79C83D9
:1022A0008B838D819E8101979E838D838D819E81FD
:1022B000009769F714C06F81788589859A850E9497
:1022C0004100DC01CB019E838D838D819E819A83A9
:1022D000898389819A810197F1F79A83898389ADEE
:1022E000815089AF89AD88230CF06ECFFE01E95B88
:1022F000FF4F80816FEF0E94AF0ACF5ADF4F0FB6BA
:10230000F894DEBF0FBECDBFCF91DF910895DF936C
:10231000CF930F92CDB7DEB7898389816FEF0E948B
:10232000AF0A0F90CF91DF910895DF93CF93CDB790
:10233000DEB782E060E041E00E941F0782E061E0DA
:1023400041E00E941F0782E062E041E00E941F0717
:1023500083E06FEF0E946B0ACF91DF910895DF93C6
:10236000CF93CDB7DEB72F970FB6F894DEBF0FBE71
:10237000CDBF8F8782E060E040E00E94420882E0AB
:1023800061E040E00E94420883E06F850E94AF0A4E
:1023900082E062E041E00E94420880E090E0A0E834
:1023A000BFE38B879C87AD87BE876B857C858D85DA
:1023B0009E8520E030E04AEF54E40E941702DC01E1
:1023C000CB018F839887A987BA876F8178858985A4
:1023D0009A8520E030E040E85FE30E9471038823A3
:1023E0002CF481E090E09E838D833FC06F817885DF
:1023F00089859A8520E03FEF4FE757E40E9411035B
:1024000018164CF56B857C858D859E8520E030E027
:1024100040E251E40E941702DC01CB01BC01CD0176
:102420000E944100DC01CB019E838D830FC088ECAC
:1024300090E09C838B838B819C810197F1F79C8337
:102440008B838D819E8101979E838D838D819E815B
:10245000009769F714C06F81788589859A850E94F5
:102460004100DC01CB019E838D838D819E819A8307
:10247000898389819A810197F1F79A83898382E020
:1024800062E040E00E9442082F960FB6F894DEBF4B
:102490000FBECDBFCF91DF910895DF93CF93CDB71E
:1024A000DEB72F970FB6F894DEBF0FBECDBF8F8774
:1024B00082E060E041E00E94420882E061E040E0AA
:1024C0000E94420883E06F850E94AF0A82E062E0CA
:1024D00041E00E94420880E090E0A0E8BFE38B87E3
:1024E0009C87AD87BE876B857C858D859E8520E02A
:1024F00030E04AEF54E40E941702DC01CB018F83E5
:102500009887A987BA876F81788589859A8520E021
:1025100030E040E85FE30E94710388232CF481E0FF
:1025200090E09E838D833FC06F81788589859A85F1
:1025300020E03FEF4FE757E40E94110318164CF5D7
:102540006B857C858D859E8520E030E040E251E4FE
:102550000E941702DC01CB01BC01CD010E944100A9
:10256000DC01CB019E838D830FC088EC90E09C83BF
:102570008B838B819C810197F1F79C838B838D8169
:102580009E8101979E838D838D819E81009769F73F
:1025900014C06F81788589859A850E944100DC018D
:1025A000CB019E838D838D819E819A8389838981CE
:1025B0009A810197F1F79A83898382E062E040E093
:1025C0000E9442082F960FB6F894DEBF0FBECDBF13
:1025D000CF91DF9108950F931F93DF93CF93CDB7E2
:1025E000DEB7C654D0400FB6F894DEBF0FBECDBFE5
:1025F000FE01ED5BFF4F80E090E0A0E2B2E480835B
:102600009183A283B3838E01015C1F4FFE01ED5BBA
:10261000FF4F608171818281938120E030E04AEF39
:1026200054E40E941702DC01CB01F80180839183FE
:10263000A283B383FE01FF966081718182819381C1
:1026400020E030E040E85FE30E94710388232CF42F
:1026500081E090E09EAF8DAF46C0FE01FF966081A5
:1026600071818281938120E03FEF4FE757E40E9420
:102670001103181664F5FE01ED5BFF4F6081718157
:102680008281938120E030E040E251E40E94170211
:10269000DC01CB01BC01CD010E944100DC01CB017A
:1026A0009EAF8DAF0FC088EC90E09CAF8BAF8BAD31
:1026B0009CAD0197F1F79CAF8BAF8DAD9EAD0197AF
:1026C0009EAF8DAF8DAD9EAD009769F716C0FE0130
:1026D000FF9660817181828193810E944100DC01BB
:1026E000CB019EAF8DAF8DAD9EAD9AAF89AF89AD59
:1026F0009AAD0197F1F79AAF89AF88E30E94AF11C5
:1027000080E090E0A0E8BFE38DAB9EABAFABB8AF8D
:102710006DA97EA98FA998AD20E030E04AEF54E47E
:102720000E941702DC01CB0189AB9AABABABBCAB0F
:1027300069A97AA98BA99CA920E030E040E85FE371
:102740000E94710388232CF481E090E098AB8FA75E
:102750003FC069A97AA98BA99CA920E03FEF4FE768
:1027600057E40E94110318164CF56DA97EA98FA994
:1027700098AD20E030E040E251E40E941702DC0115
:10278000CB01BC01CD010E944100DC01CB0198AB23
:102790008FA70FC088EC90E09EA78DA78DA59EA562
:1027A0000197F1F79EA78DA78FA598A9019798ABE0
:1027B0008FA78FA598A9009769F714C069A97AA96E
:1027C0008BA99CA90E944100DC01CB0198AB8FA78B
:1027D0008FA598A99CA78BA78BA59CA50197F1F71E
:1027E0009CA78BA78CE00E94AF1180E090E0A0E84E
:1027F000BFE38FA398A7A9A7BAA76FA178A589A5BA
:102800009AA520E030E04AEF54E40E941702DC0170
:10281000CB018BA39CA3ADA3BEA36BA17CA18DA177
:102820009EA120E030E040E85FE30E94710388232E
:102830002CF481E090E09AA389A33FC06BA17CA116
:102840008DA19EA120E03FEF4FE757E40E941103C6
:1028500018164CF56FA178A589A59AA520E030E05F
:1028600040E251E40E941702DC01CB01BC01CD0122
:102870000E944100DC01CB019AA389A30FC088EC20
:1028800090E098A38F8F8F8D98A10197F1F798A36F
:102890008F8F89A19AA101979AA389A389A19AA14F
:1028A000009769F714C06BA17CA18DA19EA10E9425
:1028B0004100DC01CB019AA389A389A19AA19E8F33
:1028C0008D8F8D8D9E8D0197F1F79E8F8D8F81E07D
:1028D0000E94AF1180E090E0A0E0B0E4898F9A8F71
:1028E000AB8FBC8F698D7A8D8B8D9C8D20E030E015
:1028F0004AEF54E40E941702DC01CB018D8B9E8BC2
:10290000AF8BB88F6D897E898F89988D20E030E0FC
:1029100040E85FE30E94710388232CF481E090E09B
:102920009C8B8B8B3FC06D897E898F89988D20E031
:102930003FEF4FE757E40E94110318164CF5698DDD
:102940007A8D8B8D9C8D20E030E040E251E40E9436
:102950001702DC01CB01BC01CD010E944100DC016A
:10296000CB019C8B8B8B0FC088EC90E09A8B898B72
:1029700089899A890197F1F79A8B898B8B899C8930
:1029800001979C8B8B8B8B899C89009769F714C06E
:102990006D897E898F89988D0E944100DC01CB0171
:1029A0009C8B8B8B8B899C89988B8F878F85988943
:1029B0000197F1F7988B8F8786E00E94AF1180E036
:1029C00090E0A0E8BFE38B879C87AD87BE876B85CF
:1029D0007C858D859E8520E030E04AEF54E40E949E
:1029E0001702DC01CB018F839887A987BA876F8193
:1029F000788589859A8520E030E040E85FE30E9491
:102A0000710388232CF481E090E09E838D833FC086
:102A10006F81788589859A8520E03FEF4FE757E4FD
:102A20000E94110318164CF56B857C858D859E855B
:102A300020E030E040E251E40E941702DC01CB01CB
:102A4000BC01CD010E944100DC01CB019E838D833E
:102A50000FC088EC90E09C838B838B819C810197D5
:102A6000F1F79C838B838D819E8101979E838D835B
:102A70008D819E81009769F714C06F817885898563
:102A80009A850E944100DC01CB019E838D838D815C
:102A90009E819A83898389819A810197F1F79A832C
:102AA0008983CA5BDF4F0FB6F894DEBF0FBECDBF80
:102AB000CF91DF911F910F910895DF93CF9300D0B5
:102AC0000F92CDB7DEB79B838A8319820EC08981AE
:102AD000282F30E08A819B81FC01E20FF31F808167
:102AE0000E944D1289818F5F89838981282F30E070
:102AF0008A819B81FC01E20FF31F8081882339F7D3
:102B00000F900F900F90CF91DF910895DF93CF93A7
:102B100000D000D00F92CDB7DEB78A836B838A8155
:102B2000882319F08A818130E1F48B818031A8F407
:102B30008A81282F30E03D832C838C819D810097F2
:102B400031F02C813D812130310521F006C08B818F
:102B5000898303C08B81805C8983898180580E942E
:102B6000AF110F900F900F900F900F90CF91DF91BA
:102B70000895DF93CF93CDB7DEB72E970FB6F894B5
:102B8000DEBF0FBECDBF81E00E94AF1180E090E0BC
:102B9000A0E0B0E48B879C87AD87BE876B857C8582
:102BA0008D859E8520E030E04AEF54E40E941702B4
:102BB000DC01CB018F839887A987BA876F817885DD
:102BC00089859A8520E030E040E85FE30E94710348
:102BD00088232CF481E090E09E838D833FC06F8139
:102BE000788589859A8520E03FEF4FE757E40E947A
:102BF000110318164CF56B857C858D859E8520E02C
:102C000030E040E251E40E941702DC01CB01BC013C
:102C1000CD010E944100DC01CB019E838D830FC05A
:102C200088EC90E09C838B838B819C810197F1F7EA
:102C30009C838B838D819E8101979E838D838D8163
:102C40009E81009769F714C06F81788589859A8580
:102C50000E944100DC01CB019E838D838D819E818A
:102C60009A83898389819A810197F1F79A8389836D
:102C70002E960FB6F894DEBF0FBECDBFCF91DF9179
:102C80000895DF93CF930F92CDB7DEB780E060EF6A
:102C90000E946B0A80E06FEF0E94AF0A0F90CF9105
:102CA000DF910895DF93CF93CDB7DEB76F970FB65F
:102CB000F894DEBF0FBECDBF1E8E28C18E8D982F1B
:102CC0009C5F80E0692F40E00E9442081D8E0FC18A
:102CD00080E06D8D0E946509882309F005C180E0C0
:102CE00090E0A8E4B2E4898F9A8FAB8FBC8F698D96
:102CF0007A8D8B8D9C8D20E030E04AEF54E40E9469
:102D00001702DC01CB018D8B9E8BAF8BB88F6D8949
:102D10007E898F89988D20E030E040E85FE30E9453
:102D2000710388232CF481E090E09C8B8B8B3FC057
:102D30006D897E898F89988D20E03FEF4FE757E4BA
:102D40000E94110318164CF5698D7A8D8B8D9C8D20
:102D500020E030E040E251E40E941702DC01CB01A8
:102D6000BC01CD010E944100DC01CB019C8B8B8B0F
:102D70000FC088EC90E09A8B898B89899A8901979A
:102D8000F1F79A8B898B8B899C8901979C8B8B8B14
:102D90008B899C89009769F714C06D897E898F891A
:102DA000988D0E944100DC01CB019C8B8B8B8B8921
:102DB0009C89988B8F878F8598890197F1F7988BDD
:102DC0008F8780E06D8D0E946509882309F08CC093
:102DD00080E06D8D0E946509882309F085C080E040
:102DE00090E0A8E4B2E48B879C87AD87BE876B85B3
:102DF0007C858D859E8520E030E04AEF54E40E947A
:102E00001702DC01CB018F839887A987BA876F816E
:102E1000788589859A8520E030E040E85FE30E946C
:102E2000710388232CF481E090E09E838D833FC062
:102E30006F81788589859A8520E03FEF4FE757E4D9
:102E40000E94110318164CF56B857C858D859E8537
:102E500020E030E040E251E40E941702DC01CB01A7
:102E6000BC01CD010E944100DC01CB019E838D831A
:102E70000FC088EC90E09C838B838B819C810197B1
:102E8000F1F79C838B838D819E8101979E838D8337
:102E90008D819E81009769F714C06F81788589853F
:102EA0009A850E944100DC01CB019E838D838D8138
:102EB0009E819A83898389819A810197F1F79A8308
:102EC00089838D8D482F50E08E8D282F30E0CA01E8
:102ED000880F991F880F991F820F931FFC01E859D3
:102EE000FE4F80818F8F18C08D8D8F5F8D8F8D8D60
:102EF000843008F4EDCE8E8D982F9C5F80E0692F92
:102F000041E00E9442088E8D8F5F8E8F8E8D8430BF
:102F100008F4D4CE8FEF8F8F8F8D6F960FB6F89405
:102F2000DEBF0FBECDBFCF91DF9108952F923F92AC
:102F30004F925F926F927F928F929F92AF92BF92C9
:102F4000CF92DF92EF92FF920F931F93CF93DF9375
:102F5000CDB7DEB7CA1BDB0B0FB6F894DEBF0FBED2
:102F6000CDBF09942A88398848885F846E847D841F
:102F70008C849B84AA84B984C884DF80EE80FD8021
:102F80000C811B81AA81B981CE0FD11D0FB6F89497
:0E2F9000DEBF0FBECDBFED010895F894FFCF58
:102F9E000000000000000000000102020303030312
:102FAE0004040404040404040505050505050505CB
:102FBE0005050505050505050606060606060606AB
:102FCE000606060606060606060606060606060693
:102FDE00060606060606060607070707070707077B
:102FEE000707070707070707070707070707070763
:102FFE000707070707070707070707070707070753
:10300E000707070707070707070707070707070742
:10301E00070707070707070708080808080808082A
:10302E000808080808080808080808080808080812
:10303E000808080808080808080808080808080802
:10304E0008080808080808080808080808080808F2
:10305E0008080808080808080808080808080808E2
:10306E0008080808080808080808080808080808D2
:10307E0008080808080808080808080808080808C2
:10308E0008080808080808080808080808080808B2
:10309E0008080808080808080708092F0405062A62
:1030AE000102032D43003D2340792430191202788A
:1030BE000010407924301912027800104079243023
:0630CE0019120278001047
:00000001FF
