:100000000C942A000C943C000C943C000C943C0092
:100010000C943C000C943C000C943C000C943C0070
:100020000C943C000C943C000C943C000C943C0060
:100030000C943C000C943C000C943C000C943C0050
:100040000C94F5060C943C000C943C000C943C0081
:100050000C943C0011241FBECFE5D8E0DEBFCDBF1D
:1000600010E0A0E6B0E001C01D92A536B107E1F7AF
:100070000E943E000C9449070C940000DF93CF933C
:1000800000D000D0CDB7DEB71C821B821A82198245
:1000900080E060E040E00E943E0281E060E041E0FC
:1000A0000E943E0281E061E041E00E943E0281E068
:1000B00062E041E00E943E0281E060E040E00E9498
:1000C000610381E061E040E00E94610381E062E061
:1000D00040E00E9461030E94340680E00E946C06AA
:1000E0009C838B838B819C81880F991F880F991F1C
:1000F0009C838B838B819C812AE030E0B9010E9434
:100100003507CB019A83898389819A81843191054E
:1001100080F481E060E041E00E94610381E061E001
:1001200040E00E94610381E062E040E00E946103E0
:10013000D4CF89819A818832910580F481E060E092
:1001400040E00E94610381E061E041E00E946103C0
:1001500081E062E040E00E946103BFCF81E060E0A7
:1001600040E00E94610381E061E040E00E946103A1
:1001700081E062E041E00E946103AFCFDF93CF9363
:10018000CDB7DEB7AFE5B0E0EFE5F0E080818068A5
:100190008C93CF91DF910895DF93CF93CDB7DEB7E6
:1001A000AFE5B0E0EFE5F0E080818F778C93CF9101
:1001B000DF910895DF93CF9300D000D0CDB7DEB7A5
:1001C00089836A838981282F30E03C832B838B814C
:1001D0009C818130910501F12B813C8122303105D8
:1001E00089F18B819C81009709F041C08A8181301F
:1001F00041F4ABE5B0E0EBE5F0E0808180648C9306
:1002000036C08A81882399F5ABE5B0E0EBE5F0E0F4
:1002100080818F7B8C932BC08A81813041F4ABE548
:10022000B0E0EBE5F0E0808180688C9320C08A81AB
:100230008823E9F4ABE5B0E0EBE5F0E080818F776F
:100240008C9315C08A81813041F4ABE5B0E0EBE5D9
:10025000F0E0808180628C930AC08A81882339F41F
:10026000ABE5B0E0EBE5F0E080818F7D8C930F9003
:100270000F900F900F90CF91DF910895DF93CF9360
:10028000CDB7DEB72A970FB6F894DEBF0FBECDBF4D
:1002900089836A838981282F30E03A872987898575
:1002A0009A858130910509F466C029853A85223006
:1002B000310509F4BBC089859A85009709F0D5C03E
:1002C0008A81282F30E038872F838F81988581306D
:1002D000910521F12F813885223031052CF48F8151
:1002E0009885009761F0C1C02F8138852230310593
:1002F00021F18F8198858330910571F1B6C0A5E514
:10030000B0E0E5E5F0E080818E7F8C93A5E5B0E07C
:10031000E5E5F0E080818D7F8C93A7C0A5E5B0E096
:10032000E5E5F0E0808181608C93A5E5B0E0E5E54E
:10033000F0E080818D7F8C9398C0A5E5B0E0E5E585
:10034000F0E080818E7F8C93A5E5B0E0E5E5F0E0FC
:10035000808182608C9389C0A5E5B0E0E5E5F0E09E
:10036000808181608C93A5E5B0E0E5E5F0E08081D7
:1003700082608C937AC08A81282F30E03E832D835F
:100380008D819E818130910521F12D813E81223028
:1003900031052CF48D819E81009761F066C02D811E
:1003A0003E812230310521F18D819E81833091057E
:1003B00071F15BC0A5E5B0E0E5E5F0E080818B7F01
:1003C0008C93A5E5B0E0E5E5F0E08081877F8C9334
:1003D0004CC0A5E5B0E0E5E5F0E0808184608C9359
:1003E000A5E5B0E0E5E5F0E08081877F8C933DC036
:1003F000A5E5B0E0E5E5F0E080818B7F8C93A5E595
:10040000B0E0E5E5F0E0808188608C932EC0A5E542
:10041000B0E0E5E5F0E0808184608C93A5E5B0E094
:10042000E5E5F0E0808188608C931FC08A81282FE9
:1004300030E03C832B838B819C818230910531F0AD
:100440002B813C812330310549F00FC0A4E5B0E099
:10045000E4E5F0E0808180648C9307C0A4E5B0E01F
:10046000E4E5F0E080818F7B8C932A960FB6F894B8
:10047000DEBF0FBECDBFCF91DF910895DF93CF9345
:10048000CDB7DEB72D970FB6F894DEBF0FBECDBF48
:1004900089836A834B838981843008F009C18A810A
:1004A000883008F005C18B81823008F001C1898154
:1004B000282F30E03D872C878C859D8581309105E4
:1004C00009F44FC02C853D85223031052CF48C85F4
:1004D0009D85009771F0ECC02C853D85223031055B
:1004E00009F477C08C859D858330910509F4A9C0F6
:1004F000DFC08B81282F30E03B872A878A859B8548
:10050000009731F02A853B8521303105B1F0D0C00C
:10051000AAE3B0E0EAE3F0E08081482F8A81282F47
:1005200030E081E090E0022E02C0880F991F0A940B
:10053000E2F7809584238C93BBC0AAE3B0E0EAE3A2
:10054000F0E08081482F8A81282F30E081E090E020
:10055000022E02C0880F991F0A94E2F7842B8C9315
:10056000A7C08B81282F30E0398728878885998517
:10057000009731F02885398521303105B1F098C0D8
:10058000A7E3B0E0E7E3F0E08081482F8A81282FDD
:1005900030E081E090E0022E02C0880F991F0A949B
:1005A000E2F7809584238C9383C0A7E3B0E0E7E370
:1005B000F0E08081482F8A81282F30E081E090E0B0
:1005C000022E02C0880F991F0A94E2F7842B8C93A5
:1005D0006FC08B81282F30E03F832E838E819F81D7
:1005E000009731F02E813F8121303105B1F060C09C
:1005F000A4E3B0E0E4E3F0E08081482F8A81282F73
:1006000030E081E090E0022E02C0880F991F0A942A
:10061000E2F7809584238C934BC0A4E3B0E0E4E33D
:10062000F0E08081482F8A81282F30E081E090E03F
:10063000022E02C0880F991F0A94E2F7842B8C9334
:1006400037C08B81282F30E03D832C838C819D81A6
:10065000009731F02C813D8121303105B1F028C067
:10066000A1E3B0E0E1E3F0E08081482F8A81282F08
:1006700030E081E090E0022E02C0880F991F0A94BA
:10068000E2F7809584238C9313C0A1E3B0E0E1E30B
:10069000F0E08081482F8A81282F30E081E090E0CF
:1006A000022E02C0880F991F0A94E2F7842B8C93C4
:1006B0002D960FB6F894DEBF0FBECDBFCF91DF9160
:1006C0000895DF93CF93CDB7DEB72D970FB6F8948B
:1006D000DEBF0FBECDBF89836A834B83898184309F
:1006E00008F009C18A81883008F005C18B81823009
:1006F00008F001C18981282F30E03D872C878C8547
:100700009D858130910509F44FC02C853D852230AF
:1007100031052CF48C859D85009771F0ECC02C85FB
:100720003D852230310509F477C08C859D85833065
:10073000910509F4A9C0DFC08B81282F30E03B87E9
:100740002A878A859B85009731F02A853B85213051
:100750003105B1F0D0C0ABE3B0E0EBE3F0E0808175
:10076000482F8A81282F30E081E090E0022E02C0DD
:10077000880F991F0A94E2F7809584238C93BBC05D
:10078000ABE3B0E0EBE3F0E08081482F8A81282FD3
:1007900030E081E090E0022E02C0880F991F0A9499
:1007A000E2F7842B8C93A7C08B81282F30E0398708
:1007B000288788859985009731F0288539852130EB
:1007C0003105B1F098C0A8E3B0E0E8E3F0E0808143
:1007D000482F8A81282F30E081E090E0022E02C06D
:1007E000880F991F0A94E2F7809584238C9383C025
:1007F000A8E3B0E0E8E3F0E08081482F8A81282F69
:1008000030E081E090E0022E02C0880F991F0A9428
:10081000E2F7842B8C936FC08B81282F30E03F83CD
:100820002E838E819F81009731F02E813F81213070
:100830003105B1F060C0A5E3B0E0E5E3F0E0808110
:10084000482F8A81282F30E081E090E0022E02C0FC
:10085000880F991F0A94E2F7809584238C934BC0EC
:10086000A5E3B0E0E5E3F0E08081482F8A81282FFE
:1008700030E081E090E0022E02C0880F991F0A94B8
:10088000E2F7842B8C9337C08B81282F30E03D8397
:100890002C838C819D81009731F02C813D8121300A
:1008A0003105B1F028C0A2E3B0E0E2E3F0E08081DE
:1008B000482F8A81282F30E081E090E0022E02C08C
:1008C000880F991F0A94E2F7809584238C9313C0B4
:1008D000A2E3B0E0E2E3F0E08081482F8A81282F94
:1008E00030E081E090E0022E02C0880F991F0A9448
:1008F000E2F7842B8C932D960FB6F894DEBF0FBED3
:10090000CDBFCF91DF910895DF93CF9300D000D07A
:100910000F92CDB7DEB78A836B838A81843008F06B
:100920006BC08B81883008F067C08A81282F30E047
:100930003D832C834C815D814130510541F18C8197
:100940009D818230910534F42C813D812115310542
:1009500061F052C04C815D814230510551F18C8172
:100960009D8183309105B9F147C0E9E3F0E08081D2
:10097000282F30E08B81882F90E0A90102C0559587
:1009800047958A95E2F7CA018170898335C0E6E30D
:10099000F0E08081282F30E08B81882F90E0A90142
:1009A00002C0559547958A95E2F7CA0181708983FF
:1009B00023C0E3E3F0E08081282F30E08B81882F93
:1009C00090E0A90102C0559547958A95E2F7CA01C2
:1009D0008170898311C0E0E3F0E08081282F30E04E
:1009E0008B81882F90E0A90102C0559547958A9583
:1009F000E2F7CA018170898389810F900F900F906F
:100A00000F900F90CF91DF910895DF93CF9300D097
:100A100000D0CDB7DEB789836A838981843008F03E
:100A200072C08A81883008F06EC08981282F30E03A
:100A30003C832B838B819C818130910549F12B81F3
:100A40003C81223031052CF48B819C81009761F030
:100A50005AC02B813C812230310571F18B819C8100
:100A600083309105E9F14FC0ABE3B0E0EBE3F0E098
:100A70008081482F8A81282F30E081E090E0022E8B
:100A800002C0880F991F0A94E2F784278C933BC019
:100A9000A8E3B0E0E8E3F0E08081482F8A81282FC6
:100AA00030E081E090E0022E02C0880F991F0A9486
:100AB000E2F784278C9327C0A5E3B0E0E5E3F0E0FC
:100AC0008081482F8A81282F30E081E090E0022E3B
:100AD00002C0880F991F0A94E2F784278C9313C0F1
:100AE000A2E3B0E0E2E3F0E08081482F8A81282F82
:100AF00030E081E090E0022E02C0880F991F0A9436
:100B0000E2F784278C930F900F900F900F90CF9166
:100B1000DF910895DF93CF9300D000D0CDB7DEB73B
:100B200089836A838981843090F58981282F30E018
:100B30003C832B838B819C8181309105D1F02B816B
:100B40003C81223031052CF48B819C81009761F02F
:100B50001EC02B813C812230310581F08B819C812C
:100B60008330910581F013C0EAE3F0E08A8180834D
:100B70000EC0E7E3F0E08A81808309C0E4E3F0E09F
:100B80008A81808304C0E1E3F0E08A8180830F9052
:100B90000F900F900F90CF91DF910895DF93CF9337
:100BA00000D000D0CDB7DEB789836A8389818430D5
:100BB00090F58981282F30E03C832B838B819C81A9
:100BC00081309105D1F02B813C81223031052CF40C
:100BD0008B819C81009761F01EC02B813C8122306B
:100BE000310581F08B819C818330910581F013C0A8
:100BF000EBE3F0E08A8180830EC0E8E3F0E08A81D5
:100C0000808309C0E5E3F0E08A81808304C0E2E3E9
:100C1000F0E08A8180830F900F900F900F90CF911A
:100C2000DF910895DF93CF93CDB7DEB7EAE3F0E02D
:100C30001082E7E3F0E01082E4E3F0E087E08083F5
:100C4000E1E3F0E08FEF8083EBE3F0E01082E8E394
:100C5000F0E084E08083E5E3F0E01082E2E3F0E09E
:100C60001082CF91DF910895DF93CF93CDB7DEB798
:100C7000A6E2B0E0E6E2F0E08081877F8C93A7E215
:100C8000B0E0E7E2F0E0808180648C93A7E2B0E01E
:100C9000E7E2F0E080818F778C93A6E2B0E0E6E2B5
:100CA000F0E0808181608C93A6E2B0E0E6E2F0E0C3
:100CB000808182608C93A6E2B0E0E6E2F0E0808181
:100CC00084608C93A6E2B0E0E6E2F0E08081806888
:100CD0008C93CF91DF910895DF93CF9300D00F9243
:100CE000CDB7DEB78B831A821982A7E2B0E0E7E2C4
:100CF000F0E08081807E8C93A7E2B0E0E7E2F0E054
:100D000090818B81892B8C93A6E2B0E0E6E2F0E043
:100D1000808180648C93E6E2F0E0808182958F7020
:100D2000882F90E0817090700097A9F3E4E2F0E0E2
:100D3000808191819A838983A6E2B0E0E6E2F0E0C7
:100D4000808180618C9389819A810F900F900F90A0
:100D5000CF91DF910895DF93CF9300D000D000D0E2
:100D6000CDB7DEB78A837C836B835E834D83198224
:100D700080916400882369F581E0809364008B8111
:100D80009C8190936100809360008D819E819093FF
:100D9000630080936200A7E2B0E0E7E2F0E08081C8
:100DA000807E8C93A7E2B0E0E7E2F0E090818A8158
:100DB000892B8C93A6E2B0E0E6E2F0E080818860C7
:100DC0008C93A6E2B0E0E6E2F0E0808180648C9350
:100DD00002C081E08983898126960FB6F894DEBF30
:100DE0000FBECDBFCF91DF9108951F920F920FB626
:100DF0000F9211242F933F934F935F936F937F93A1
:100E00008F939F93AF93BF93EF93FF93DF93CF9312
:100E1000CDB7DEB7A0916000B0916100E4E2F0E0F0
:100E2000808191818D939C93E0916200F0916300A9
:100E30000995A6E2B0E0E6E2F0E08081877F8C933E
:100E400010926400CF91DF91FF91EF91BF91AF912C
:100E50009F918F917F916F915F914F913F912F91D2
:100E60000F900FBE0F901F901895AA1BBB1B51E14E
:100E700007C0AA1FBB1FA617B70710F0A61BB70B0A
:100E8000881F991F5A95A9F780959095BC01CD01AF
:060E90000895F894FFCF65
:00000001FF
